:1000000002079A020803FFFFFFFFFF02080BFFFF32
:10001000FFFFFF020813FFFFFFFFFF02081BFFFFA8
:10002000FFFFFF020823FFFFFFFFFF02082BFFFF78
:10003000FFFFFF020833FFFFFFFFFF02083BFFFF48
:10004000FFFFFF020843FFFFFFFFFF02084BFFFF18
:10005000FFFFFF020853FFFFFFFFFF02085BFFFFE8
:10006000FFFFFF020863FFFFFFFFFF02086BFFFFB8
:10007000FFFFFF020873FFFFFFFFFF02087BFFFF88
:10008000FFFFFF020883FFFFFFFFFF02088B74F7EB
:1000900012065774FC120751750804750900780898
:1000A00012077A74021207B6AC82AD837A907B0095
:1000B000790112045B740212073774021207B6E06A
:1000C000FAA3E0FB851882851983E06A7003A3E038
:1000D0006B8518828519837014E0F47003A3E0F433
:1000E000601B12034FE849600B790180121203551F
:1000F000E8497009EA4B70057901120546790074E8
:10010000040201F174F712065774FF1207518005BB
:10011000900283E4F07C017D00851882851983AA12
:1001200082AB8379001205E08B09EA45097003026E
:1001300001ED900283E0600B14601A14603E1460BD
:100140007980D2851882851983E064FE70C7900299
:1001500083740180BF851882851983E0644260053D
:10016000E0640270AB9002837402F0900281E4F0CC
:100170009002801201F92403900282F08518828592
:100180001983E0F8900280E0681201F9C0E0900263
:1001900081E0F8748128F58274013400F583D0E0A1
:1001A000F0900281E004F0F8900282E068600302BF
:1001B00001159002837403020114E4F0900280E0C0
:1001C000F8851882851983E06860030201159001A3
:1001D00082E0541F640D60030201151202027900CF
:1001E000A3E064837009A3E07005098002790074BC
:1001F000011207377F020206BDF085188285198338
:10020000E02274F512065774FC120751750800902D
:100210000183E014600D24FE6032147003020315A4
:10022000020331750A10750B00780A12077A7C8672
:100230007D01900184E0FAA3E0F9EA2400E93402A8
:10024000FB1204E07402120737020334A3120355B1
:10025000900284E8F0A3E9F012035B8A0A8B0BA8F2
:100260000AA90B900284E0687003A3E069600302AE
:100270000310750A04750B00780A12077A740212CB
:1002800007B6AC82AD837A907B00790112045B746F
:100290000212073774021207B612035585188285B9
:1002A0001983E0687003A3E069605412034F74027D
:1002B0001207B6E8F0A3E9F085188285198374FF68
:1002C000F0A3F0750A01780A12077A74021207B6D1
:1002D000AC82AD837A247B021204E07402120737E9
:1002E000750A04780A12077A74021207B6AC82AD56
:1002F000837A907B00790112045B74021207371233
:10030000034F74021207B6E0687003A3E06960242B
:10031000750807801F7E017F0075C9A075C950EE62
:10032000F912054612040BEE9480EF9400500580FC
:10033000E87508019001817401F0900183E0D2E733
:10034000F0E508A3F074041207377F040206BD85A8
:100350001882851983E0F8A3E0F92274F412065795
:1003600074FC1207517508007509007E007F027544
:10037000C9A075C95074246E700374026F606A75E9
:100380000A04750B00780A12077A74021207B6ACD9
:1003900082AD83EEF50AEF5401F50B7402780A1270
:1003A0000767AA0AAB0B8E0A8F0B7409780A12072B
:1003B0008BA90A12045B7402120737750C00850CB6
:1003C0000A851882851983E582250AF582E583343A
:1003D00000F583E0F9AA08AB091204158A088B0915
:1003E000050CE50CC3940440D512040B94FA500399
:1003F00002036FE4F9AA08AB09120415E4F9120428
:100400001574041207377F050206BDEE24010EEFB6
:100410003400FFC32274F712065774FF1207517C91
:10042000088A088B09740F780812078B8518828553
:100430001983E508F0EAC333FAEB33FBE9A2E7508E
:100440000474014AFAE0600874216AFA74106BFBC4
:10045000E9C333F91CEC70C90201EF74F5120657B9
:100460008908740F5508F50A750B00740B780A1289
:100470000767EA2400F8EB3480F9E82400E9350B3B
:10048000F9E5C7F509A2AFE433F50AC2AFE508C440
:10049000540FFAE5C754F84AF5C7740B1207B6E0D3
:1004A000FAA3E0FB801C88828983E08C828D83F034
:1004B00088828983A3A882A9838C828D83A3AC823E
:1004C000AD83EAFEEBFFEE24FF1AEF34FFFBEE4FA5
:1004D00070D48509C7E50AA2E092AF7F040206BD89
:1004E00074F7120657ED900286F0ECA3F0A3746245
:1004F000F0A37473F0A3E0541FF074091207B6E080
:10050000F508A3E0F509E508333354FC90028BF0BD
:100510007406780812078BE50890028AF090028C26
:100520007412F0A37442F053D1FE75D601EA9062C2
:1005300071F0EBA3F0906270E0D2E1F0E0A2E7404E
:10054000FB7F020206BDC082C083E9C333906272A2
:10055000F0906270E0D2E0F0D083D0822274F81282
:10056000065775080075868075C48053F1FE43F305
:100570000C53FF3F85FFFF75C2D875C50B75C402CC
:100580007586C0803BE586A2E150295386FD900226
:100590008EE0F8900290E028FAA3E034008A82F519
:1005A00083E0F5C190028EE004F00890028FE068CD
:1005B0007002E4F0E586A2E25006120104E9420866
:1005C00075C9A075C95090028FE070B9E50860E464
:1005D000E586A2E040DEC2AF75C9AB75C95B80FE9F
:1005E000C082C083E586A2E2500BE5C18A828B837C
:1005F000F07A0180027A007B00D083D0822253BE41
:10060000FBE59DA2E650FAE5C654804449F5C6E5EF
:100610009E547F644970F853C67FE59EA2E740FA76
:1006200053C680E59E547F70FA43BE049062707496
:1006300008F07402F5D575D48612008EE964017055
:100640000302080075C90043C90812055DC2AF75F1
:10065000C9AB75C95B80FE2518C582C0E0E51934B9
:10066000FFC583C0E0E518C3958224F910AF088563
:1006700083198582188008858319858218D2AFCEA8
:10068000F0A3E520F0A37808E608F0A3DEFAEFF087
:10069000A3E58124FBF8E608F0A3E608F0A3080828
:1006A000E608F0A3E608F0A315811581D0E0FED09E
:1006B000E0F815811581E8C0E0EEC0E022851983DD
:1006C000851882E0A3FEE0A3F5207808E0A3F608F1
:1006D000DFFAE0A3FFE0A3C0E0E0A3C0E0E0A3C036
:1006E000E0E0A3C0E010AF08858218858319800878
:1006F000858218858319D2AFD083D082221207C594
:10070000B90003020716E490018078137902800291
:10071000F0A3D8FCD9FA1205FE1207C02518F582FD
:1007200010AF08F518400215198008F51840021599
:1007300019D2AF85198322C0D0251810AF08F5183B
:10074000500205198008F51850020519D2AFD0D013
:1007500022251810AF08F518400215198008F51861
:1007600040021519D2AF22700422600D18C6C3339F
:10077000C608C633C6D5E0F4182274028000C0E073
:10078000F40412071CD0E01207A922600C08C6C3AB
:1007900013C618C613C6D5E0F42275D00075813F84
:1007A0007518807519010206FDCAC0E0E6F0A308BD
:1007B000DAFAD0E0FA222518F582E43519F5832219
:1007C00000000080FB790122FFFFFFFFFFFFFFFF1A
:1007D000FFFFFFFFFFFFFFFFFFFFFFFFFFFFFFFF29
:1007E000FFFFFFFFFFFFFFFFFFFFFFFFFFFFFFFF19
:1007F000FFFFFFFFFFFFFFFFFFFFFFFFFFFFFFFF09
:10080000020A1A021D37FFFFFFFFFFFFFFFFFFFF76
:10081000FFFFFFFFFFFFFFFFFFFFFF022247FFFF7A
:10082000FFFFFFFFFFFFFFFFFFFFFF0221A7FFFF0B
:10083000FFFFFFFFFFFFFFFFFFFFFF0221CCFFFFD6
:10084000FFFFFF022145FFFFFFFFFFFFFFFFFFFF4D
:10085000FFFFFF021DAAFFFFFFFFFFFFFFFFFFFFDC
:10086000FFFFFFFFFFFFFFFFFFFFFFFFFFFFFFFF98
:10087000FFFFFFFFFFFFFFFFFFFFFF02216DFFFFF5
:10088000FFFFFF021BA3FFFFFFFFFFFFFFFFFFFFB5
:10089000B8B0B8B0000177258925B3257D25FF00C4
:1008A00000B4000028002800283075A000A000A097
:1008B00000A00000080008E001F000100010001087
:1008C00000100010001000500050005000100010E8
:1008D00000D0070000000000000F000100050030FC
:1008E0007507001000010081FF00000000FF0202F8
:1008F0000208025000A0000000E80302D0820100BC
:1009000000498202CC820100002C1302C88201003F
:1009100000AF0202CC820100002D1302C68201004A
:1009200000C50202CC820100002E1302C482010025
:1009300000C70202CC820100002F1302C08208000F
:1009400000C80202CC82010000301302BE82010006
:10095000003113FFFFFF552F552F552F552F552FC2
:10096000552F552F552F552F552F552F552F552F67
:100970008931A7318331FFFF01E803053F10020AE7
:100980000000733800009138FFFF01434F44415786
:100990006865656CFF00E5C754F84401F5C7790147
:1009A0002200000080FB120996B90003020A04E449
:1009B00079217808B800028004F709D8FCE4792985
:1009C0007802B800028004F709D8FCE4900280782D
:1009D0005579118002F0A3D8FCD9FA9012D4AA82DA
:1009E000AB83900896780179028015E493A3AC82DA
:1009F000AD838A828B83F0A3AA82AB838C828D83A2
:100A0000D8E9D9E775829B7583FF7402120A2C75A9
:100A100082A17583097400120A2C75D00075813F7C
:100A2000751880751902759F000209A6C09FF59F71
:100A3000E473D09F22D083D082C09FE493C0E0743F
:100A40000193C0E0740293F59F22E76670100809D5
:100A5000E766700A0809E76670040809E76622E09D
:100A600066701008A3E066700A08A3E066700408C8
:100A7000A3E06622C3E7960809E7960809E7960807
:100A800009E79622C3E09608A3E09608A3E096083B
:100A9000A3E09622C008C3E096F50808A3E09642BA
:100AA0000808A3E096420808A3E09645087001D321
:100AB000D00822080808E630E71112102C120ACBE1
:100AC000080808C64480C618181822181818E979AA
:100AD0009EC608CAC608CBC608CCC6C37020799685
:100AE000CACBCC7019798ECBCC70137986CC700EB2
:100AF000F9802ACA33CACB33CBCC33CC331930E795
:100B0000F2CCCBCA3350147004EA30E00DE4CA3A98
:100B1000CACB3BCBCC3CCC500209C3E913C6CC18A2
:100B20002313C6CB18C6CA18C6F922E6C333184623
:100B30001846184622E7C3331947194719472218A0
:100B40001818E6084608700AE608C3337005E6334D
:100B5000F4220822191919E7094709700AE709C39D
:100B6000337005E733F4220922E6084608C313462A
:100B700008336002E633F422E7094709C313470943
:100B8000336002E733F422120B69601C120B7860A9
:100B900017120B2B7007120B357001D322C0D01225
:100BA0000B357006D0D0B322C32233D0D0501430CE
:100BB000E0F6C3E7960809E7960809E7960809E70B
:100BC00096B32220E0D5E6970809E6970809E6974C
:100BD0000809E697B32200120B69604F120B786088
:100BE00012E7548066F6120B3F7011120B35703B02
:100BF000090909F4F618F618F618F622120B5470C3
:100C000015120B2B08080860EAE6447FF618768078
:100C100018E4F618F622120B2B6016120B35701220
:100C2000E4F608F608F608E65480F60909091818EB
:100C30001822EAC0E0EBC0E0ECC0E0EDC0E0E687DF
:100C4000F0A4FBACF008E687F0A42CFCE435F0FA45
:100C50001809E687F0A42C4B60027401CA35F0FC39
:100C6000E433FB09E687F0D2F7A42CCB35F0FC196E
:100C700008E687F0A42BCC35F0FBE433FD0819E639
:100C800087F0D2E7A42C4ACB35F0CD3400FC09E63E
:100C900087F0D2E7A42DCC35F0FDE433FA0918E64D
:100CA00087F0D2F7A42CCD35F0CA3400FC08E687D3
:100CB000F0D2E7D2F7A42ACC35F07A7E20E70B0AEF
:100CC000CB33CBCD33CDCC33CC33CB3350147004BA
:100CD000ED30E00ED2F1E4CD3DCDCC3CCC3B500527
:100CE000DA05C2F1EB547FC63308E63392F0FBE736
:100CF0003309E733C39A502D2B70190C0D4C4D70EE
:100D0000151806E608C333700D20F10AA2F013F699
:100D1000E418800B4024E4F630F002768018F618D0
:100D2000F618F68024D33B14501074FFA2F013F68B
:100D3000187680E418F618F6800FA2F013F618E67D
:100D40003303F618ECF618EDF6D0E0FDD0E0FCD059
:100D5000E0FBD0E0FA22120B697004181818221276
:100D60000B78700D74FFF61819F61819F61819F6A5
:100D700022E7548066F6120B2B700F120B3570F0C1
:100D800014F608F608F608F680D1120B35700CF64A
:100D900008F608768008E6447F80EC120B57700C4A
:100DA000120B4260BFE65480F6E480BB120B427027
:100DB0000519191980A5E869700C763F1876801816
:100DC000F618F6E8F922E6CDC0E018ECC0E0E6330C
:100DD000CD33CDD313F6E719FCE7191933CC33C360
:100DE000947F400ECD9D502408E65480F6E418F61A
:100DF000800FF4043D14501408E6447FF618768002
:100E0000E418F618F6D0E0FCD0E0FD22CCD313CCE9
:100E1000FD18E4C6CBC0E018E4C6CAC0E00808ED7F
:100E200008C633E613F618E433C675F003C3CA9751
:100E3000CA09CB97CB199C40047D08802EBD0003C6
:100E4000020EFF16B6FF050606081618C3CA33CAF7
:100E5000CB33CB33CA27CA09CB37CB193CC37D0868
:100E6000803E187D0820E75CC633C6CA33CACB3340
:100E7000CB33DDF1D5F0EB30E77BCA97CA09CB97CE
:100E80004ACB199C406F4B7025E620E02180661804
:100E90007D08C3CA97CA09CB97CB199CD3C633C662
:100EA000CA33CACB33CB3350C9DDE7D5F0E1D3E445
:100EB000C636C608C636C608C636C608C636C618FA
:100EC00018188031C3CA97CA09CB97CB199CB34075
:100ED00097C633C6CA33CACB33CB33DD34D5F02EF5
:100EE000C6A2E0C640C8CA27CA09CB37194A70BE95
:100EF000CB3CB480B90808E63308E633601F181805
:100F000018D0E0FAD0E0FBD0E0FCD0E0FD22187D64
:100F100008CA27CA09CB37CB193CD3808013F618EF
:100F2000E4B67F11F618B6FF0EF618C60470D208A4
:100F300008768080CAF618F618F680C5080808EA10
:100F4000C0E0EBC0E086F0E7A4FA180986F0E7A459
:100F50002AFA180986F0E7A42AFA180986F0E7A405
:100F60002AFA1986F0E7A4FBE5F02AFA190886F0B8
:100F7000E7A42BFBE5F03AFA190886F0E7A42BFB6F
:100F8000E5F03AFA18180986F0E7A4C5F02BFBE45F
:100F90003AFA1908E7C5F0C6A426F6E5F03BFBE4EB
:100FA0003AFA1886F0E7A4F6E5F00826F6E43B08DE
:100FB000F6E43A08F6D0E0FBD0E0FA22E4CFC0E055
:100FC000E4CEC0E0E4CDC0E0E4CCC0E075F020C3E6
:100FD000E633F608E633F608E633F608E633F618A5
:100FE0001818EC33FCED33FDEE33FEEF33FFC3ECAA
:100FF0009709ED9709EE9709EF97191919400FFF17
:10100000EC97FC09ED97FD09EE97FE191906D5F04E
:10101000BEECF709EDF709EEF709EFF7191919D04A
:10102000E0FCD0E0FDD0E0FED0E0FF22181818E48C
:10103000C396F608E496F608E496F608E496F622D7
:101040006016080808C6C313C618C613C618C61308
:10105000C618C613C6D5E0EA22700908080822603F
:1010600016181818C6C333C608C633C608C633C612
:1010700008C633C6D5E0EA22E627F60809E637F6C1
:101080000809E637F60809E637F622E026F608A34F
:10109000E036F608A3E036F608A3E036F622E026AE
:1010A000F008A3E036F008A3E036F008A3E036F03D
:1010B00022C3E697F60809E697F60809E697F608C8
:1010C00009E697F622C3E096F008A3E096F008A39D
:1010D000E096F008A3E096F022E657F60809E657F6
:1010E000F60809E657F60809E657F622E056F6082C
:1010F000A3E056F608A3E056F608A3E056F622E071
:1011000056F008A3E056F008A3E056F008A3E05616
:10111000F022E046F608A3E046F608A3E046F6080B
:10112000A3E046F622E667F60809E667F60809E650
:1011300067F60809E667F622E0F608A3E0F608A3DA
:10114000E0F608A3E0F622E6F008A3E6F008A3E63E
:10115000F008A3E6F022E0FAA3E0FBA3E0FCA3E0A2
:10116000FD22EAF0A3EBF0A3ECF0A3EDF022CAC05D
:10117000E0E6F0A308DAFAD0E0FA22CAC0E0E0A381
:10118000C582CCC582C583CDC583F0A3C582CCC53D
:1011900082C583CDC583DAE6D0E0CA22C3E498F8DD
:1011A000E499F91211DD8026C3E49AFAE49BFBE985
:1011B00020E7E91211DDE498F8E499F922C3E498F4
:1011C000F8E499F91211DDE498F8E499F9C3E49A86
:1011D000FAE49BFB22EB20E7CFE920E7E0B900101F
:1011E000BB0008E88AF084F8AAF022E4FBC8FA22DF
:1011F000EB70227B10C833C8C933C9335007C39A78
:10120000C3DBF280069A50012ADBEAC833F4C8C96E
:1012100033F4C9FA2275F008E4C833C8C933C933B6
:10122000C99AC99B5004C92AC93BD5F0ECFBC83305
:10123000F4C8E4C9FA22600D08C6A2E713C618C6AE
:1012400013C6D5E0F322600C08C6C313C618C61334
:10125000C6D5E0F422700422600D18C6C333C60858
:10126000C633C6D5E0F41822251810AF08F518408B
:101270000215198008F51840021519D2AF22C0D006
:10128000251810AF08F518500205198008F51850F8
:10129000020519D2AFD0D0222518F58210AF08F57B
:1012A00018400215198008F51840021519D2AF85AB
:1012B0001983222518F582E43519F58322E4732574
:1012C00018C582C0E0E51934FFC583C0E0E518C346
:1012D000958224F810AF08858319858218800885C7
:1012E0008319858218D2AFCEF0A3E520F0A3780849
:1012F000E608F0A3DEFAEFF0A3E58124FAF8E608A9
:10130000F0A3E608F0A3E608F0A30808E608F0A3B7
:10131000E608F0A315811581D0E0FED0E0F8158134
:1013200015811581E8C0E0EEC0E0222518C582C015
:10133000E0E51934FFC583C0E0E518C3958224F9C0
:1013400010AF0885831985821880088583198582E6
:1013500018D2AFCEF0A3E520F0A37808E608F0A3FA
:10136000DEFAEFF0A3E58124FBF8E608F0A3E60837
:10137000F0A30808E608F0A3E608F0A3158115819C
:10138000D0E0FED0E0F815811581E8C0E0EEC0E0C5
:1013900022851983851882E0A3FEE0A3F520780852
:1013A000E0A3F608DFFAE0A3FFE0A3C0E0E0A3C0FB
:1013B000E0E0A3C0E0E0A3C0E0E0A3C0E010AF081D
:1013C0008582188583198008858218858319D2AF94
:1013D000D083D082020A32851983851882E0A3FE69
:1013E000E0A3F5207808E0A3F608DFFAE0A3FFE029
:1013F000A3C0E0E0A3C0E0E0A3C0E0E0A3C0E01031
:10140000AF0885821885831980088582188583191D
:10141000D2AFD083D08222C0D02518C582C0E0E5EB
:101420001934FFC583C0E0E518C3958224F310AFDB
:10143000088583198582188008858319858218D2CA
:10144000AFC8F0A3E9F0A3EAF0A3EBF0A37908E7B3
:1014500009F0A3D8FAECF0A3EDF0A3EEF0A3EFF0BF
:10146000A3D0E0F0A3D0E0F0A3D0E0F0A3E520F01B
:10147000A3E5F0F0A322851983851882E0C0E0A3DC
:10148000E0F9A3E0FAA3E0FBA37808E0F608A3DF05
:10149000FAE0FCA3E0FDA3E0FEA3E0FFA3E0C0E0D0
:1014A000A3E0C0E0A3E0F5D0A3E0F520A3E0A3F51E
:1014B000F010AF0885831985821880088583198507
:1014C0008218D2AFD082D083D0E0F8D0E03274045A
:1014D0008006740280027401C0E0F404121298D0F5
:1014E000E012116E227404800474028000CCC0E00B
:1014F000EDC0E0E518C39CCCAD1950011D10AF063E
:101500008C188D1980068C188D19D2AF12117BD0D2
:10151000E0FDD0E0FC22D083D082E9C0E0E493A3D8
:10152000C386F0C5F095F0F908E493A386F0C5F002
:1015300095F0700BE493A3C3994005E9048002A3DE
:10154000E475F002A42582F582E5F03583F583D0B9
:10155000E0F9E493A3C0E0E493C0E022D083D0821A
:10156000ECC0E0EDC0E0E493A3FCE493A3FDED4CFC
:10157000600D1215A8EC24FFFCED34FFFD80EFE4B4
:1015800093A3FCE493A3FDED4C600D1215E7EC244E
:10159000FFFCED34FFFD80EFD0E0FDD0E0FCE493F4
:1015A000A3C0E0E493C0E022C0E0C3E493960874D3
:1015B00001939618400FE4936670080874019366CF
:1015C0001870007019A3A3C3E4939608740193964E
:1015D00018A3A3400DD0E0D0E0D0E0021598A3A35B
:1015E000A3A3A3A3D0E022C0E0C0F088F0E49366F8
:1015F00070080874019366187000A8F0A3A3700B1C
:10160000D0F0D0E0D0E0D0E0021598A3A3D0F0D085
:10161000E022FFFF74F512132BEAFEEBFFEE2434F9
:10162000F8EF3400F988088909EE2435F582EF34A3
:1016300000F583E0F8EE2437F582EF3400F583E01F
:10164000F50AEC850AF0A4FCAAF0850AF0EDA42ABC
:10165000FDE82CF8E43DF97A257B001211DDEA85DE
:101660000882850983F0F8740758F97401B90002FB
:101670008004C333D9FCFAE8131313541FF8EE287F
:10168000F8EF3400F9E8245DF582E93400F583E0F1
:101690005A6008EE2434F582EF802CEE2434F58273
:1016A000EF3400F583E0C0E0EE2436F582EF34003D
:1016B000F583E0F5F0D0E084A8F0EE28F8EF3400F0
:1016C000F9E82438F582E93400F583E0F97F040273
:1016D00013D774F512132BEAFEEBFFEE2434F582D8
:1016E000EF3400F583E0C0E0EE2435F582EF3400FE
:1016F000F583D0E0F08E828F83A3A3A3A3A3A3A33B
:10170000C082C0838E828F83A3A3A3A3A3E0F8A388
:10171000E0F9D083D082E0C398F508A3E099F509F9
:10172000EE247FF582EF3400F583E064017069EE0A
:101730002480F582EF3400F583E0F8A3E0F98E828F
:101740008F83A3A3A3A3A3A3A3E0FCA3E0FD8E82A6
:101750008F83A3A3A3A3A3E0FAA3E0FBC3EA9CEBBC
:101760009D5010C3EC98ED99402EC3EA98EB995028
:1017700027800EC3EA98EB994007C3EC98ED994097
:10178000177C857D07EEFAEFFB122E8FEE247FF596
:1017900082EF3400F583E4F0EE2434F8EF3400F9FE
:1017A000E8FCE9FDEE2435F582EF3400F583E0F83E
:1017B000EE2437F582EF3400F583E0F50AE508857D
:1017C0000AF0A4F508AAF0850AF0E509A42AF509AB
:1017D000E82508F8E43509F97A257B001211DDEADD
:1017E0008C828D83F0F8740758F97401B900028077
:1017F00004C333D9FCFAE8131313541FF8EE28F886
:10180000EF3400F9E8245DF582E93400F583E05A0D
:101810006008EE2434F582EF802CEE2434F582EF5C
:101820003400F583E0C0E0EE2436F582EF3400F5B5
:1018300083E0F5F0D0E084A8F0EE28F8EF3400F96A
:10184000E82438F582E93400F583E0F91221310209
:1018500016CDC082C083851882851983E0F8A3E085
:10186000F9C3EA9CEB9D5010C3EC98ED99401BC363
:10187000EA98EB995014800EC3EA98EB994007C39D
:10188000EC98ED994004790180027900D083D082F0
:1018900022EAC39CFAEB9DFB2274EF12132B9004F7
:1018A0003FE064086005E06407702A9061C8E0606A
:1018B0002490046DE0F4601DE0F875F005A4C8AA5A
:1018C000F02AF9746F28FE740439FF8E828F83A387
:1018D000A3A3E070030219C9906060E0C0E0EE24A9
:1018E00068F582EF3400F583D0E0F0750C18750DC3
:1018F00008750800750900E5D914F50AE5D95403FF
:10190000F50E60177403650E605CE50A6010EE2446
:1019100067F582EF3400F583E070030219AE90089A
:1019200013E06401602AEE2482F582EF3400F5832F
:10193000E06004780480027800850A08E508C3980E
:10194000FA95E0FB122BD18A088B09EA450970054C
:101950001231478074EE2482F582EF3400F583E083
:1019600070048A0C8B0DE50A6012850C82850D834C
:10197000F50BE5D9F0A3150BE50B70F6EE2482F517
:1019800082EF3400F583E0604474FC250AF50A78A0
:101990000C1214D2AC0AA90EEEFAEFFB122F4F7400
:1019A0000212127EE97026AA08AB091238E5793DC9
:1019B0008E828F83A3A3A3A3E0FA7B00122AABEE4F
:1019C000FAEFFB122EB9122FAF7900807D740365F8
:1019D0000E6056850A1075110078101214D2AC0CE6
:1019E000AD0DAA08AB09122F2B740212127EEE2441
:1019F00068F582EF3400F583E064807004747F80C2
:101A000001E0F50C780C1214D6E50EF50C780C12EA
:101A100014D6A90AAC08AD0990046DE0FA7B001257
:101A20002A69740212127E801C90043FE06408ACA4
:101A30000CAD0D7009EEFAEFFB122F7F8007EEFA66
:101A4000EFFB12301512315379017F0A0213D7745C
:101A5000F512132B74FC121268EAFEEBFF8908A240
:101A6000AFE433F509C2AF806AEE2463F8EF3400C7
:101A7000F97A007B00A2AFE433F50AC2AF8882890D
:101A800083E0FCA3E0FDEC4D603A88828983E0FAB4
:101A9000A3E0FB8A828B83E0FCA3E0FD888289833C
:101AA000ECF0A3EDF08A828B83E4F0A3F0888289C6
:101AB00083E0FCA3E0FDEC4D700A88828983A3A338
:101AC000E4F0A3F0E50AA2E092AF1238E590078CAB
:101AD000E004F0EE2463F582EF3400F583E0F8A330
:101AE000E0F9E849603DEE2463F582EF3400F583C8
:101AF000E02402FAA3E03400FBEA2402F50AEB3406
:101B000000F50B780A1214D28A828B83E0FCA3E0E2
:101B1000F9EEFAEFFB122EE9740212127EE970035D
:101B2000021A6990078CE0606390078DE0F89007D7
:101B30008CE0C398500C74026508705090078EE0DA
:101B4000604A8E828F83A3A3A3A3E08518828519A0
:101B500083F0A3E4F090078CE0F874021212B3E86B
:101B6000F0A3E4F090078CE0F890078BE028F07485
:101B7000021212B3AC82AD83851882851983AA82C2
:101B8000AB837901122A7590078CE4F0E509A2E095
:101B900092AF740412127E0216CDFFFF8521878555
:101BA00022C622C0E0C0D0E8C0E0E9C0E0EAC0E060
:101BB000EBC0E0ECC0E0EDC0E0EEC0E0C008C00962
:101BC000C00AC00BC082C083C0F0A2AFE433FEC223
:101BD000AF759B00906182E0A2E05012E591A2E017
:101BE000500C7591FE740165217003121899E0A2E2
:101BF000E55051E591A2E5504B7591DF90043FE02F
:101C000064076005E064087023740165217035790C
:101C10000190046DE0FA75F005A4CAA8F028FB74E1
:101C20006F2AFA74043BFB121A4F8018E0640D709F
:101C300013900461E004F064287002E4F07A00E09C
:101C4000F9123171906182E0A2E64003021CEAE5DC
:101C500091A2E64003021CEA7591BF90043FE06444
:101C600005700812303F12304B8003123045752149
:101C7000001230B1E9900440F07900123093122D37
:101C8000AB7A017B0090043EE0F912358B9078032B
:101C9000E064427055900817E014F0704DC2AF1226
:101CA0001CA200782AD0E0F618D0E0F6E59F540791
:101CB00070057509FF800375097FC4C0E07829E6C7
:101CC000F50808E65509F509740B7808121246D094
:101CD000E02508F8906270E0A2E740F8E8C333908E
:101CE0006272F0906270E0D2E0F0906181E0A2E375
:101CF0005009E5E9A2E3500375E9F7A3E0A2E75034
:101D000009E591A2E7500375917FEEA2E092AFD072
:101D1000F0D083D082D00BD00AD009D008D0E0FE1A
:101D2000D0E0FDD0E0FCD0E0FBD0E0FAD0E0F9D08C
:101D3000E0F8D0D0D0E032C0E0C0D0C082C0839004
:101D40006183E0A2E05009E5BFA2E0500375BFFE49
:101D5000E0A2E15009E5BFA2E1500375BFFDE0A29A
:101D6000E25009E5BFA2E2500375BFFBE0A2E350D9
:101D700009E5BFA2E3500375BFF7E0A2E45009E50F
:101D8000BFA2E4500375BFEFE0A2E55009E5BFA292
:101D9000E5500375BFDFE0A2E65009E5BFA2E650BB
:101DA0000375BFBFD083D0828088C0E0C0D0E8C0B8
:101DB000E0E9C0E0EAC0E0EBC0E0ECC0E0EDC0E08C
:101DC000C0F0E5A7A2E6500FE5A1A2E6500953A78F
:101DD000BF75A1BF121E0FE5A7A2E5500CE5A1A299
:101DE000E5500653A7DF75A1DFE5A7A2E15009E59D
:101DF000A1A2E1500375A1FDE5A7A2E2500CE5A167
:101E0000A2E2500653A7FB75A1FBD0F0021D20747F
:101E1000F812132B75210190043FE064067015122F
:101E20002FD38A828B83A3A3A3A3A3A3E0FAA3E067
:101E3000FB12302DA2AFE433FED2AF900445E06434
:101E40000170187A207B0090043EE0F91236157A72
:101E5000207B0090043EE0F9123591906182E0D23F
:101E6000E6F0900814E0602185C6228016900444B4
:101E7000E064017008E5C654F84405F5C653BEFC9D
:101E8000121B9C7401652160E4EEA2E092AF7F0119
:101E90000213D7FF8E238F248582288583278518F8
:101EA00082851983E0CEA3E0CF852882852783EB46
:101EB000C9EAC8EDCBECCA75F010C3E833C8E93302
:101EC000C9EA33CAEB33CBC3EA9EF526EB9FF5256F
:101ED000B35004AB25AA26EC33CCED33CDD5F0DAE4
:101EE000AE23AF242274ED12132B8A088B098C0ABF
:101EF0008D0B74131212B3780C1211387808790C08
:101F0000120A747510017511C8751200751300500E
:101F1000127808790C1210B178107908120A7450EE
:101F2000168010780C79081210B17810790C120A0A
:101F30007440047901800279007F0C0213D774ED9C
:101F400012132B8A088B098C0A8D0B74131212B38F
:101F5000780C121138780C7908120A74401178083C
:101F6000790C1210B1AA08AB09AC0AAD0B8022752E
:101F700010007511007512007513017810790C129C
:101F800010B178107908121078AA10AB11AC12AD0C
:101F90001380A68A828B837508FF7509FF750AFF77
:101FA000750B0078081210FF7F040213D774F51226
:101FB000132B8C828D8378081211388A828B837858
:101FC000081210C5EA2404F8EB3400F98C828D83E2
:101FD000A3A3A3A3E0FCA3E0FD88828983C3E09CC4
:101FE000F0A3E09DF088828983C3E09420A3E0946D
:101FF0004E40268A828B837508FF7509FF750AFF9C
:10200000750BFF780812109E8A828B83A3A3A3A36B
:10201000E02420F0A3E0344EF0021F9374F5121375
:102020002BE9FE9007A0E0FAA3E0FBEEC333F8E44F
:1020300033F9740728F582748239F583E02AF508AC
:10204000A3E03BF50978081214D27A407B427C0F5A
:102050007D00121E94740212127E8A088B098C0A6B
:102060008D0B74107808121040AA08AB097F040287
:1020700013D774F112132B8A0C8B0D8C0E8D0F74E9
:102080000F1212B3E0FAA3E0FB74111212B3E0F5E1
:1020900008A3E0F50978081214D2EA2401F508EB48
:1020A0003400F509E4F50AF50B780C7908120F3CB9
:1020B000750871750902780C7908120F3CAA0CABEF
:1020C0000DAC0EAD0F121E94740212127E8B09EA33
:1020D000450960047A0180027A00EC2AFCED3400A4
:1020E000FD74131212B3E0F8A3E0F9E8FEE9FFEC87
:1020F000F8EDF97A717B021211DD880889098E8268
:102100008F837808121147ECF8EDF97A717B02128F
:1021100011DD8A088B09740578081212558E828F9A
:1021200083A3A3A3A3E508F0A3E509F07F080213A6
:10213000D7C082C083E9906000F0D083D08222C2F1
:10214000AF02000022C0E074F2121417A2AFE43311
:10215000FED2AFC2C0E5D1A2E4500653D1EF12388F
:1021600031EEF8EEA2E092AF7F01021476C0E07487
:10217000F2121417A2AFE433FED2AFE58AA2E04018
:102180000CE58AA2E14006E58AA2E450031237D7A3
:10219000758A00758A00758A00C2EBEEF8EEA2E03F
:1021A00092AF7F01021476C0E0C0D0E8C0E0E9C081
:1021B000E0A2AFE433F8D2AFC2C7E8F9E8A2E092F8
:1021C000AFD0E0F9D0E0F8D0D0D0E032C0E0C0D05D
:1021D000E8C0E0E9C0E0C008C009C082C083A2AF87
:1021E000E433F9D2AF901065E0F8901066E06870C3
:1021F0000B539AFB9010677401F08031C2E9901084
:1022000065E0F50874012508901065F07509007403
:10221000E52508F582740F3509F583E0F5C19010C6
:1022200065E0C3948040069010657400F0E9F8E919
:10223000A2E092AFD083D082D009D008D0E0F9D00C
:10224000E0F8D0D0D0E032C0E074F2121417A2AFA0
:10225000E433FED2AFC28F90106FE064AA6025E530
:10226000F9C0E0901079E0F87900746F28F5827475
:102270001039F583D0E0F0901079E02401F090104F
:10228000797400F0E5F9C0E0901079E0F879007415
:102290006F28F582741039F583D0E0F0901079E062
:1022A0002401F0901079E0C3940A5003022457905F
:1022B00010797400F07A00780079008015746F2826
:1022C000F582741039F583E02AFAE82401F8E9343C
:1022D00000F9C3E89409E99400A2D265D03340DD47
:1022E00074FFC39AF890106FE064AA600302245749
:1022F000901070E064BB6003022457901071E0649A
:10230000CC6003022457901078E0686003022457E1
:10231000901072E0F87900E4C8F9901073E0FA7B4D
:1023200000E84AF8E94BF990106BE0FAA3E0F58376
:102330008A82E8F0A3E9F0901074E0F87900E4C82C
:10234000F9901075E0FA7B00E84AF8E94BF9901033
:102350006BE0FAA3E0F5838A82A3A3E8F0A3E9F097
:10236000901076E0F87900E4C8F9901077E0FA7BF5
:1023700000E84AF8E94BF990106BE0FAA3E0F58326
:102380008A82A3A3A3A3E8F0A3E9F090106BE0F87E
:10239000A3E0C82406F582E83400F5837400F090C9
:1023A000106DE0F8A3E0C82406F582E83400F58358
:1023B000E0600302245790106DE0F8A3E0C8240603
:1023C000F582E83400F5837401F090106BE0F8A317
:1023D000E0F5838882E0F8A3E0F990106DE0FAA3BD
:1023E000E0F5838A82E8F0A3E9F090106BE0F8A3AF
:1023F000E0F5838882A3A3E0F8A3E0F990106DE0F4
:10240000FAA3E0F5838A82A3A3E8F0A3E9F0901091
:102410006BE0F8A3E0F5838882A3A3A3A3E0F8A36D
:10242000E0F990106DE0FAA3E0F5838A82A3A3A3FC
:10243000A3E8F0A3E9F07C6D7D107A077953123997
:1024400069E9F890106BE0F9A3E0C92406F582E988
:102450003400F5837401F0EEF8EEA2E092AF7F0154
:10246000021476120A35DDDF04120A35F3DF041296
:102470000A3522E004120A3558E004120A356FE0EA
:1024800004120A35A6E004120A35F9E004120A35EE
:1024900010E104120A3527E104120A3571EC041226
:1024A0000A3588EC04120A35D6EC04120A355BC4EE
:1024B00003120A355FC503120A358CC503120A35AB
:1024C000D7C503120A350CC603120A350EC603120D
:1024D0000A3531C603120A3540C703120A3504C84B
:1024E00003120A35EAC803120A3576C903120A35FF
:1024F00079C903120A3501CA03120A3568CA0312E0
:102500000A3504CB03120A358ECB03120A35DDCB14
:1025100003120A35EACB03120A35EDCB03120A3552
:102520004DCC03120A35DCCC03120A35DFCC031282
:102530000A3585CD03120A3595CD03120A35C5CD6E
:1025400003120A35D2CD03120A35D5CD03120A354E
:1025500056CE03120A3544CF03120A35F6CF0312C2
:102560000A350AE503120A3502E603120A3536E691
:1025700003120A35B8E603120A35D8E603120A3503
:1025800020E703120A3573E703120A35D7E703126F
:102590000A3564E803120A351EE903120A352DECE8
:1025A00003120A35B8ED03120A35DBED03120A35C2
:1025B0004AC004120A35E7C104120A354BC204129C
:1025C0000A35AAC204120A35B8C204120A35E1C299
:1025D00004120A35C4AD04120A35ECAD04120A35F2
:1025E0001AAE04120A3551AE04120A35AFAE041207
:1025F0000A35FAAE04120A3545AF04120A3585AF22
:1026000004120A35CBAF04120A35F9AF04120A35A9
:10261000B6B004120A35C0B004120A35CDB00412A7
:102620000A3500B104120A35CCB104120A35D8B10A
:1026300004120A35F0B104120A35FAB104120A354F
:1026400078B204120A3589E704120A3597E70412B2
:102650000A35AFE704120A35C7E704120A35DFE787
:1026600004120A35008003120A35AC8003120A35C1
:10267000278103120A35488203120A358482031225
:102680000A352D8303120A35148403120A3578851E
:1026900003120A35CF8503120A35508603120A3514
:1026A000408703120A358D8703120A3513880312F7
:1026B0000A35458803120A35598A03120A359B8A5E
:1026C00003120A35B98A03120A355B8B03120A35E5
:1026D000238C03120A35308E03120A35F5C3041217
:1026E0000A350BC404120A3531C404120A354DC52B
:1026F00004120A3557C504120A358CC604120A356D
:1027000084C704120A35CCDC04120A3503DE041235
:102710000A35E06B00120A35596C00120A35696CF3
:1027200000120A354F6D00120A358C6D00120A3501
:10273000DC6D00120A35E76D00120A35D16E001209
:102740000A35876F00120A356E7100120A35277339
:1027500000120A35037400120A35B77400120A35E4
:10276000F47700120A35A27800120A35117A0012A5
:102770000A35917B00120A35387C00120A35817CBB
:1027800000120A35B87C00120A35557D00120A3550
:10279000E07D00120A35498E03120A35BA8E031203
:1027A0000A35E78E03120A353E8F03120A35E78F8A
:1027B00003120A35EE9003120A35B89103120A3556
:1027C000189303120A355B9303120A35009403121F
:1027D0000A35269403120A35349603120A353996BF
:1027E00003120A353E9803120A358B9803120A35F4
:1027F000FE9803120A35319903120A35D399031250
:102800000A357C9A03120A35B49A03120A35B79A2C
:1028100003120A35FF9A03120A35419B03120A3547
:10282000989B03120A35F9D004120A350CD1041210
:102830000A351AD104120A3530D104120A3577D17B
:1028400004120A358BD204120A3518D304120A3541
:1028500063D304120A35498E04120A35688E0412B5
:102860000A35C08E04120A35F88E04120A35228FFA
:1028700004120A35E49304120A35799404120A35D5
:10288000CD9404120A35F49404120A3523980212E6
:102890000A352D9802120A35D19802120A35149978
:1028A00002120A35289902120A35609902120A3575
:1028B000A99902120A35D29902120A35179A021200
:1028C0000A35609A02120A35889A02120A35119B5B
:1028D00002120A35CA9B02120A35E09B02120A351F
:1028E0001C9C02120A35449C02120A357C9C02127E
:1028F0000A35AF9C02120A35E69C02120A35059D84
:1029000002120A352E9D02120A35A79D02120A35BF
:10291000BC9D02120A35D19D02120A35E69D0212B3
:102920000A351B9E02120A35559E02120A35799EFF
:1029300002120A35429F02120A35589F02120A35C6
:10294000779F02120A358A9F02120A359F9F021250
:102950000A35B49F02120A352AA002120A353EA097
:1029600002120A3596A002120A35A5A002120A35F3
:1029700001A102120A353BA102120A3570A102120E
:102980000A359CA102120A35CAA102120A35FDA11C
:1029900002120A3512A202120A3527A202120A35C1
:1029A00057A202120A35A2A202120A3501A302128C
:1029B0000A3542A302120A357EA302120A35A9A3E0
:1029C00002120A3518A402120A3555A402120A3559
:1029D00080A402120A35B0A402120A35DBA4021246
:1029E0000A3505A502120A353CA502120A3571A561
:1029F00002120A35AEA502120A35D8A502120A350E
:102A000008A602120A3532A602120A355CA6021284
:102A10000A3587A602120A35B0A602120A3507A7A0
:102A200002120A3549A702120A3574A702120A35A2
:102A3000D8A702120A3502A802120A352DA80212DE
:102A40000A3558A802120A3588A802120A35D1A8F8
:102A500002120A35FBA802120A3520A902120A3511
:102A6000A7A902120A353FE104120A3592E10412C5
:102A70000A35DFB902120A350DBA02120A3568BBEF
:102A800002120A3548BC02120A3567BC02120A3526
:102A9000E4BC02120A3527BD02120A35A2BE021298
:102AA0000A3511BF02120A353CC102120A35C0C3F1
:102AB00002120A3571C402120A3567C502120A35BC
:102AC00007C602120A3505C702120A355FC802128C
:102AD0000A35EAC802120A355FC902120A3514E43F
:102AE00004120A357DE404120A35D1E404120A35D1
:102AF00000E504120A3521E504120A351AB8041259
:102B00000A3587B804120A35CEB804120A35E6B978
:102B100004120A35E2BA04120A35C5BB04120A359A
:102B20001D9504120A355F9504120A353896041271
:102B30000A35329704120A35149804120A357D9822
:102B400004120A35999904120A35059A04120A35B5
:102B5000089A04120A35319A04120A35AB9A041203
:102B60000A35509B04120A35659B04120A35AB9B4B
:102B700004120A35C49B04120A35C79B04120A3595
:102B80008EC704120A35CAC704120A3508C80412CF
:102B90000A35D2C804120A3541C904120A357CC963
:102BA00004120A35BAC904120A35EAC904120A35F0
:102BB00011CA04120A357FCA04120A35C1CA0412A6
:102BC0000A35283A00120A35833C00120A35953F2F
:102BD00000120A35D13F00120A35FE3F00120A35B5
:102BE000F04000120A353B4100120A3586410012BE
:102BF0000A35984100120A35D84100120A351942A7
:102C000000120A35284200120A355D4200120A35C8
:102C1000AB4200120A35DA4200120A355243001262
:102C20000A35844300120A35C04300120A35E343D3
:102C300000120A35B54400120A35EC4400120A3578
:102C40008E4500120A35154600120A35FD4600125F
:102C50000A35954900120A35014B00120A35774BA7
:102C600000120A35F34B00120A35324E00120A35B3
:102C7000734E00120A35175000120A3538500012F0
:102C80000A35795000120A35725100120A357F5305
:102C900000120A353C5400120A35D65400120A3587
:102CA000AE5A00120A35FE5A00120A35705D001243
:102CB0000A35A85E00120A35B76000120A35236192
:102CC00000120A35D16100120A35A26200120A35DB
:102CD000D36200120A35FD6200120A352763001222
:102CE0000A355C6300120A35816300120A35A0635D
:102CF00000120A35CD6300120A35456400120A3508
:102D0000BD6400120A35076500120A3529650012F4
:102D10000A35236600120A35F76600120A3528675D
:102D200000120A358F6700120A35AF6700120A35A4
:102D3000BC6800120A351C6900120A35FF690012CE
:102D40000A358E6A00120A35B96A00120A35FE6A1F
:102D500000120A35426B00120A35916B00120A35D7
:102D6000B36B00120A35C1DA04120A3576DC04129C
:102D70000A35B4AA03120A35B2AB03120A354BB2B4
:102D800003120A356CB403120A3537B603120A353A
:102D90009FB703120A35D98201120A3588830112BE
:102DA0000A35B58301120A35FB8301120A350D84F9
:102DB00001120A35438501120A35A18501120A352F
:102DC000C68501120A35FD8501120A359387011265
:102DD0000A350D8801120A355C8801120A35D68839
:102DE00001120A35308A01120A35908B01120A3518
:102DF000968C01120A35F78D01120A35498E01129F
:102E00000A35BA8F01120A35FF9101120A35F9927B
:102E100001120A35129301120A35709301120A3514
:102E20008F9301120A35AE9301120A35B193011244
:102E30000A35E29401120A35DA9501120A35C6966E
:102E400001120A35A89701120A35DB9701120A35DB
:102E50004B9801120A35BD9801120A3537990112B3
:102E60000A358D9901120A35689A01120A35329B8A
:102E700001120A35079C01120A35E69C01120A3537
:102E8000719D01120A35DF9D01120A35539E011210
:102E90000A357E9E01120A353D9F01120A35919F27
:102EA00001120A357EA201120A35C7A201120A35A3
:102EB0000AA301120A3583A301120A351BA40112C9
:102EC0000A350CA501120A3531A501120A3577A57C
:102ED00001120A35A1A501120A35E9A501120A3528
:102EE00064A601120A35BEA601120A3527A80112EE
:102EF0000A35D5A801120A3516A901120A355DE670
:102F000002120A35ABE602120A35B7E602120A359A
:102F100095E702120A35C6E702120A35F7E70212F0
:102F20000A3577E802120A35F5E802120A352DE96A
:102F300002120A357FE902120A35BCE902120A358B
:102F4000D9EB02120A35FFED02120A35EAEF02123E
:102F50000A35D4F102120A35F37F00120A35A4A211
:102F600004120A35EFA604120A3533A804120A35F2
:102F700009D802120A35C1DA02120A35C7DA02127A
:102F80000A3581DD02120A354EE002120A3500B31D
:102F900004120A35A4B304120A3576B404120A35B1
:102FA000A0B404120A35EEB604120A3546A901127D
:102FB0000A3590A901120A3559BA01120A35DEBB49
:102FC00001120A3501BD01120A3572C301120A3518
:102FD0006DC401120A35AAC401120A35CDC401120A
:102FE0000A350FC501120A3518C501120A3522C566
:102FF00001120A3510C601120A3506C701120A3538
:103000009FC701120A35EFE801120A35EEEC0112F2
:103010000A35F4EC01120A352FF401120A3548F989
:1030200001120A3509CB04120A3503CC04120A3501
:1030300077CC04120A35B5CC04120A3529CD041216
:103040000A35A2CD04120A35ABCD04120A35B7CD2C
:1030500004120A35CCCD04120A350ACE04120A3500
:1030600020CE04120A3506EF03120A3513EF0312BD
:103070000A352DEF03120A356CEF03120A35AAEF59
:1030800003120A350FF003120A3524F003120A3531
:103090002FF003120A353CF003120A3553F00312E5
:1030A0000A3561F003120A3570F003120A3585F013
:1030B00003120A359AF003120A35A5F003120A35F5
:1030C000B1F003120A35BEF003120A35CDF0031237
:1030D0000A35D8F003120A35FDF003120A3502F161
:1030E00003120A359CF103120A3502F203120A3563
:1030F00012F203120A3527F203120A353CF20312C8
:103100000A3556F203120A3571F203120A358EF2AD
:1031100003120A3599F203120A3555F303120A35E0
:1031200041F403120A355DF403120A3574F40312F4
:103130000A357FF403120A3594F403120A35A8F411
:1031400003120A3509F503120A350FF503120A3581
:1031500015F503120A351BF503120A352FF5031274
:103160000A3556F503120A3591F503120A35AAF508
:1031700003120A35EAF503120A351DF603120A3561
:1031800067D003120A3589D003120A3569D10312B8
:103190000A3540D403120A356CD503120A3590D68D
:1031A00003120A3542D703120A35E3D703120A3550
:1031B0008A9C03120A350E9D03120A35BD9D031227
:1031C0000A351C9F03120A353DA103120A3529A2B4
:1031D00003120A355EA203120A3580A203120A35D1
:1031E0002FA303120A3527A503120A3550A503128F
:1031F0000A35E2A503120A3514A603120A3521A6E0
:1032000003120A3578A603120A359EA603120A3560
:103210000BA903120A350EAA03120A3566AA031275
:103220000A359DC902120A35A7CA02120A358ECB89
:1032300002120A3598CB02120A35BACB02120A35AD
:10324000C6CB02120A355FCD02120A358ECD0212AC
:103250000A35AACE02120A3503CF02120A3569D006
:1032600002120A3548D102120A35A4D102120A35D7
:1032700011D202120A354CD202120A358BD2021236
:103280000A3544D502120A355ED502120A35EAD54E
:1032900002120A35F8D502120A3551D602120A3541
:1032A0005FD602120A35D2D602120A3536D702127A
:1032B0000A3580D702120A3526FE03120A354BFE64
:1032C00003120A35BDFE03120A35008004120A35C6
:1032D000098004120A35128004120A35E9800412AA
:1032E0000A359A8204120A35D08204120A350A83FA
:1032F00004120A35408304120A357A8304120A350F
:10330000AE8304120A35DA8304120A3523840412C8
:103310000A355D8404120A35A68404120A35FE8437
:1033200004120A35338504120A358E8504120A35D3
:10333000C88504120A35198604120A354F8604120C
:103340000A35898604120A35AC8604120A35C9B7D3
:1033500003120A35FCB703120A353FB803120A35C7
:103360004AB803120A3555B803120A3560B8031279
:103370000A35CCBB03120A359FBC03120A3519BDAE
:1033800003120A3590BD03120A359DBD03120A359A
:10339000AABD03120A35B4BD03120A35BEBD03121D
:1033A0000A35DABD03120A35EABD03120A352CBE0E
:1033B00003120A3552BE03120A355CBE03120A35E7
:1033C00066BE03120A3570BE03120A357DBE0312B3
:1033D0000A3587BE03120A3591BE03120A359BBE19
:1033E00003120A35A5BE03120A35EFBE03120A35D1
:1033F0000CBF03120A3529BF03120A3539BF031265
:103400000A3543BF03120A359EBF03120A35ABBF0C
:1034100003120A356FC003120A3579C003120A3548
:1034200083C003120A358DC003120A35AAC00312E5
:103430000A35C7C003120A358BC103120A3595C17C
:1034400003120A35A2C103120A35AFC103120A35AD
:10345000D0C103120A35D9C103120A3500C20312C2
:103460000A3527C203120A354CC203120A3555C267
:1034700003120A3564C203120A357CC203120A35EC
:1034800085C203120A3594C203120A35A3C203127D
:103490000A35ACC203120A35BBC203120A35CBC2CD
:1034A00003120A35EAC203120A35F7C203120A35BB
:1034B00004C303120A3514C303120A3521C30312CD
:1034C0000A3531C303120A3541C303120A3551C309
:1034D00003120A3583C303120A358DC303120A355A
:1034E0009DC303120A35ADC303120A35BAC30312D2
:1034F0000A35DFC303120A35ECC303120A35FCC3D5
:1035000003120A3506C403120A3513C403120A351E
:103510001DC403120A352DC403120A3537C4031221
:103520000A3541C403120A3551C403120A354C87C7
:1035300004120A355A8704120A359C8704120A3588
:10354000EB8704120A35338804120A358D88041279
:103550000A35B38804120A35C18804120A351F8956
:1035600004120A35528904120A35648904120A3594
:10357000768904120A35018A04120A359A8A0412DD
:103580000A35178B04120A35508B04120A35DB8B6F
:1035900004120A35328C04120A358F8C04120A3553
:1035A000A18C04120A35C78C04120A35D08C04127F
:1035B0000A35128E04120A3567E504120A3533E61D
:1035C00004120A3576D804120A35BBD804120A351B
:1035D000FBD804120A357CDA04120A35EFEB041228
:1035E0000A350AEC04120A351AEC04120A35AFEA5D
:1035F00004120A3576A804120A3596A804120A3570
:1036000084A904120A35CDA904120A35EDA90412C1
:103610000A3533AA04120A358EAA04120A35CCAA36
:1036200004120A3516AB04120A35BD7E00120A35A3
:10363000ED7E00120A351D7F00120A353D7F001213
:103640000A358D7F00120A35EB9B04120A352F9C38
:1036500004120A35DD9C04120A35F29C04120A3564
:10366000669D04120A35B89D04120A35CB9D0412DA
:103670000A35079E04120A35A19E04120A351B9FC3
:1036800004120A3553A004120A3588A104120A351F
:10369000F1A104120A355DA204120A3552EB04129C
:1036A0000A35EEC901120A3504CD01120A353FCEA2
:1036B00001120A3545D001120A35F0D001120A353F
:1036C00081D101120A3511D201120A353BD2011201
:1036D0000A3523D701120A35CED701120A3531D95E
:1036E00001120A3595D901120A3549DA01120A3553
:1036F00008DD01120A3547DD01120A35BBDD011272
:103700000A351ADE01120A3579DE01120A35E8DEC1
:1037100001120A35DBDF01120A3521E001120A35F8
:1037200066E001120A3587E001120A3502E2011251
:103730000A3515E201120A351CE301120A3549E384
:1037400001120A3572E301120A35B8E301120A3593
:10375000D6E301120A351AE401120A356CE60112A9
:103760000A3513E701120A357EE701120A35BBE874
:1037700001120A358BE604120A35A8E604120A354E
:1037800079E704120A3550CE04120A35EBD0041240
:103790000A3558ED04120A3578E804120A3588E82B
:1037A00004120A35A8E804120A3539E904120A3568
:1037B0008DD304120A3527D404120A35F7D5041222
:1037C0000A35ABE204120A35E4E204120A3547E393
:1037D00004120A3567E304120A35CBE304120A35F2
:1037E000E5FF01120A359AF603120A3579F8031239
:1037F0000A3500F903120A3501FA03120A35C5FA2F
:1038000003120A353AFB03120A351CFC03120A356F
:103810001FFC03120A352DFC03120A3540FC03126B
:103820000A3557FC03120A356EFC03120A357CFC7C
:1038300003120A3593FC03120A35A1FC03120A3560
:1038400002FD03120A3512D604120A3571D704128A
:103850000A35CFA902120A35B0AB02120A35F4AC10
:1038600002120A3559AD02120A356CAD02120A3540
:10387000E1B102120A3539B202120A35DBB4021282
:103880000A351AB502120A3536B502120A355BB589
:1038900002120A3574B502120A35EEB602120A3562
:1038A00081B702120A35D3B702120A359AB802124A
:1038B0000A35CDB802120A3548B902120A35A6B93E
:1038C00002120A35FCE904120A3578EA04120A35B4
:1038D00088EA04120A3598EA04120A35A8EA0412A2
:1038E0000A35FEFD01120A355FFE01120A35FDFEA2
:1038F00001120A3564FF01120A3587BC04120A3529
:10390000B9BC04120A35B5BD04120A35D2BE041280
:103910000A3583BF04120A35BDDA03120A35A3DB68
:1039200003120A35F0DB03120A3533DC03120A35C1
:10393000A6DC03120A3505DD03120A357ADD03120F
:103940000A3556DE03120A3561DF03120A35E2DF5B
:1039500003120A3582E103120A3516E203120A3510
:1039600085E203120A35FDE203120A3514E303125D
:103970000A354FE403120A35A1E403120A35008028
:1039800002120A35468102120A350F9102120A35D7
:10399000909402120A35FB9502120A3527960212FC
:1039A0000A35139702120A35AFF402120A35F7F4FA
:1039B00002120A357BF502120A35F5F502120A35B4
:1039C00039F602120A357DF602120A3547E9041269
:1039D0000A355FE904120A3577E904120A358FE9DE
:1039E00004120A35A7E904120A35BFE904120A35A0
:1039F000C6E904120A35E1E904120A3559DE041257
:103A00000A35B2DE04120A353AED04120A35E8EC42
:103A100004120A35B9FF01120A35CBFF03FFFFFF7D
:103A200031B1E1FFFFFFFFFF74F41212BFE9900410
:103A30003EF0123063907800E0C4540F54076403E2
:103A40007004793F8002797F75080675090078084F
:103A50001214D27C2C7D047AEA7B071237AD7402F3
:103A600012127E90042CE0F47049A3E0F47044A399
:103A7000E0F4703FA3E0F4703AA3E0F47035A3E003
:103A8000F4703090780EE090042CF090780FE09075
:103A9000042DF0907810E090042EF0907811E090D2
:103AA000042FF0907812E0900430F0907813E090BA
:103AB0000431F090043274FFF0A3F0A3F0A3F0A35C
:103AC000F0A3F090042CE0900438F090042DE090E6
:103AD0000439F090042EE090043AF090042FE09026
:103AE000043BF0900430E090043CF0900431E0900E
:103AF000043DF090045C7406F0A3740DF0A3E4F0B0
:103B0000A37440F0A37401F090079474FFF0A3F045
:103B1000A3F0A3F0A3F0A3F0900793E4F090079A2A
:103B2000F0A374A0F0A3E4F0A37403F0A37407F06F
:103B3000A3E4F0A37428F0A3E4F0A304F0A3E4F05A
:103B40009007C3F09007E974FFF0A3F0A3F0A3F08F
:103B5000A3F0A3F09007E8E4F09007EF04F0A3E4EB
:103B6000F0A3F0A37480F0A37402F0A37480F0A318
:103B70007402F0A3E4F0A304F0A3F0A3E4F0A374B0
:103B800025F0A3E4F0A3F090080074FFF0A3F0A3E5
:103B9000F0A3F0A3F0A3F09007FFE4F09008060470
:103BA000F0A3E4F0A37480F0A37402F0A37480F097
:103BB000A37402F0A37425F0A3E4F0A3F0A37405AA
:103BC000F090081074FFF0A3E4F0900812F0900851
:103BD0001404F09008157490F0A37401F0122DC332
:103BE000122BD712302179017A177B08122F0790F8
:103BF0000817E075F01484E5F004F0790C7A387B4E
:103C000008122F07122F257A0090043EE0F9123592
:103C1000E5907803E064427055900817E014F07066
:103C20004DC2AF123C2600782AD0E0F618D0E0F65C
:103C3000E59F540770057509FF800375097FC4C0AF
:103C4000E07829E6F50808E65509F509740B7808C7
:103C5000121246D0E02508F8906270E0A2E740F822
:103C6000E8C333906272F0906270E0D2E0F09004AA
:103C700069E4F0A3F07A80FB90043EE0F912358B02
:103C80000242A674F41212BFEAFEEBFFEEA2E0506D
:103C900045900440E0C39480E0500FC333F8E43310
:103CA000F9749428F5827413800EF4C333F8E43366
:103CB000F974A228F582741339F583E0F8A3E0F5CE
:103CC0008388821212BD7A0090043EE0F91235E535
:103CD000EE6401023F8954087003023D7090080EA3
:103CE000E0F875F005A4C8AAF02AF9746F28FA74F0
:103CF0000439FB75080078081214D6EA2432F582DC
:103D0000EB3400F583E0F508A3E0F50974047808C6
:103D100012124678081214D2EA2430F582EB3400ED
:103D2000F5831214E9EA242EF582EB3400F583E0E2
:103D3000F508A3E0C313F509E50813F508780812A0
:103D400014D275087F75090778081214D290077E7F
:103D5000E0FD7C008A828B83A3A3A3A3E0FA7B000F
:103D60007900122AA5740912127EEE6408023F89B6
:103D7000EE5410604075080078081214D6E4F50976
:103D800078081214D278081214D278081214D27556
:103D9000087F75090778081214D290077EE0FD7C31
:103DA000007A007B007902122AA5740912127EEEB5
:103DB0006410023F89EE54026040750800780812D2
:103DC00014D6E4F50978081214D278081214D278BF
:103DD000081214D275087F75090778081214D2905A
:103DE000077EE0FD7C017A007B00793C122AA574F5
:103DF0000912127EEE6402023F89EE54047003023F
:103E00003E9F90046DE0F875F005A4C8AAF02AF969
:103E1000746F28FA740439FBEA242AF582EB340023
:103E2000F583E0F50878081214D6EA2432F582EB1F
:103E30003400F583E0F508A3E0F50974047808126E
:103E4000124678081214D2EA2420F582EB3400F5E9
:103E5000831214E9EA242EF582EB3400F583E0F5B1
:103E600008A3E0C313F509E50813F5087808121450
:103E7000D275087F75090778081214D290077EE082
:103E8000FD7C018A828B83A3A3A3A3E0FA7B007944
:103E900000122AA5740912127EEE6404023F89EE14
:103EA0005440604075080078081214D6E4F509788B
:103EB000081214D278081214D278081214D2750895
:103EC0007F75090778081214D290077EE0FD7C0107
:103ED0007A007B00793B122AA5740912127EEE64E7
:103EE00040023F89EE5480603B900815E0F8A3E063
:103EF000F9E849602A79001235DF900815E0F508E5
:103F0000A3E0F509E4F50AF50B78081214CE7A005F
:103F10007B0190043EE0F9123609740412127EEE21
:103F200064808065EF5401600C79011235DFEEFA90
:103F3000EF64018056EF5402600AC2AF75C9AB75D9
:103F4000C95B80FEEF5404600A12213FEEFAEF6471
:103F5000048038900445E064017033EE5420602EF4
:103F600090043FE024F9600314701B793F90046DC6
:103F7000E0FA75F005A4CAA8F028FB746F2AFA7459
:103F8000043BFB122EBFEE6420FAEFFB80047A00A4
:103F90007B000242A674F61212BFC3EA9411EB949E
:103FA0000050047A1080027A20EA2408FAE43400EF
:103FB000FB1238DF8A088B09A808A909E849600ABA
:103FC000E82404FAE93400FB80047A007B00024B09
:103FD000EE74F61212BFEA2405FAEB3400FB123835
:103FE000DF8A088B09A808A909E849600AE82405BE
:103FF000FAE93400FB80047A007B00024BEEC082B9
:10400000C083C2AF123045E5E170FC75E101122DAD
:104010009F75E1F112306F122D93790712312979D2
:104020000112312F79021230991230CF12310B79EF
:104030000012311D790112311D7A557B557C557D59
:104040000012308190077EE4F0A3F0A3F0A3F0A368
:10405000F0A3F0A3F090079AF0A3F0A3F090079ECE
:104060007407F090079D7403F09007A3E4F09007A5
:10407000A2F09007C3F09007F0F0900807F0122E1E
:10408000A7122FA9122ECB79001231359007857413
:10409000FFF0A3F0A3F0A3F0A3741FF0906012E46C
:1040A000F0A3F0906063F075210090043FF090075A
:1040B0008AF090078B740CF090078CE4F090078DD9
:1040C00004F090078EE4F090078F04F0900790E4DE
:1040D000F0900441F0A3F0900444F090044504F003
:1040E00090045B04F0900813E4F0D2AFF90262CCC4
:1040F000C082C08390042CE08A828B83F090042DD0
:10410000E08A828B83A3F090042EE08A828B83A3C3
:10411000A3F090042FE08A828B83A3A3A3F09004E2
:1041200030E08A828B83A3A3A3A3F0900431E08ABA
:10413000828B83A3A3A3A3A30262C9C082C0838A84
:10414000828B83E0900432F08A828B83A3E0900418
:1041500033F08A828B83A3A3E0900434F08A828BAD
:1041600083A3A3A3E0900435F08A828B83A3A3A347
:10417000A3E0900436F08A828B83A3A3A3A3A3E0D9
:104180009004370262C9C082C083122DCFE9700546
:104190001230CF79000262CC74F71212BFEAFEEB44
:1041A000FF8908122DCFE9702CE508600A740165BB
:1041B00008600A7912801E7C00790080047C0079F6
:1041C00001EEFAEFFB1230DBE9F874036870047952
:1041D0000780027900024B7274F71212BFEAFEEBFD
:1041E000FF8908122DCFE9702DE508600A7401657A
:1041F0000860087912801F790080027901EEFAEFD9
:10420000FB1230E1E9F87404686005740568700415
:10421000791F80027900024B7274F71212BFEAFE16
:10422000EBFF1230D5024B6A74F61212BFEA4B60F4
:1042300016EC4D6012740A1212B3E0F508A3E0F513
:1042400009E508450970047912800F78081214D224
:10425000122F19740212127E7900024BEE74F412BE
:1042600012BFEAFEEBFF890890043FE06409601486
:10427000E0640A600FE0640B600AE0640C6005E033
:10428000640D7004790C801E122FD38B0BEA450B42
:10429000700BA908EEFAEFFB122F0780099004417A
:1042A000E04440F0790D7F0402139174F61212BFBE
:1042B000EA4B6003E970047912801CEAFEEBFF8987
:1042C00008122F01E98E828F83F0A3AE82AF83158F
:1042D00008E50870EC7900024BEE74F71212BF8A01
:1042E000828B83E04433F0A3A882A983E04433F0B7
:1042F0008A828B83E0D2E6F0EA2403FCEB3400FDF3
:104300008C828D83E0D2E4F0EA2402FEEB3400FFDD
:104310008E828F83E044C0F08C828D83E04403F072
:104320008E828F83E0440FF08A828B83E0448CF08E
:104330008C828D83E0D2E5F088828983E044CCF0E2
:104340008C828D83E044CCF08E828F83E0443002F7
:104350004B6FC082C0837852790488828983A3E03E
:104360008A828B83F088828983A3A882A9838A8228
:104370008B83A3AA82AB83E8645A7003E964047058
:10438000D90262CA74F71212BF74091212B3E0F8AC
:10439000A3E0F990045CE08A828B83F090045DE0F6
:1043A000FAA3E0FB8C828D83EAF0A3EBF090045F2C
:1043B000E0FAA3E0FB88828983EAF0A3EB024B6F6B
:1043C000C082C083E9F8740168700B90081374010F
:1043D000F079000262CCE87006900813E480F1796D
:1043E0001280F074F71212BFC3EB940F5056C3EA59
:1043F0009403EB9400504DEAF8EBF9E875F005A44E
:10440000C8ACF02CFC75F005E9A42CF9747228F501
:1044100082740439F583E06027EAF8EBF9E875F077
:1044200005A4C8ACF02CFC75F005E9A42CF9746F58
:1044300028FE740439FF8E828F83A3A3A3E0700843
:104440007902804579128041EE24ECF582EF340048
:10445000F583E064017035EE24F2F582EF3400F567
:10446000831214E9EE24F0F582EF3400F583121480
:10447000E9EE24EFF582EF3400F583E0FC790012D9
:104480002ABD740412127E7900024B72EE24EDF5FF
:1044900082EF3400F583E07018790CEEFAEFFB122E
:1044A0002E7DEE24EDF582EF3400F5837401F0806B
:1044B000D6793A80D474F71212BFECFEEDFFEE4FBE
:1044C0006026EA6005146015801E122DBDE9F88E85
:1044D000828F83F0748068700A793080088E828FB2
:1044E00083E4F07900024B72791280F9C082C083B4
:1044F000E9FD8D82A882C3E4940F4003024589E858
:10450000C394034003024589E875F005A4C8ACF0E4
:104510002CF9747228F582740439F583E0700479FB
:10452000028068746F28F8740439F9E8245DF58214
:10453000E93400F583E08A828B83F0E8245EF5821B
:10454000E93400F583E08A828B83A3F0E8245FF5E9
:1045500082E93400F583E08A828B83A3A3F0E82408
:1045600060F582E93400F583E08A828B83A3A3A3FC
:10457000F0E82461F582E93400F583E08A828B83D8
:10458000A3A3A3A3F07900800279120262CC74F78E
:104590001212BF90043FE0640C701290618EE0F93B
:1045A000748069705E8C828D83747F8062C3EB94AB
:1045B0000F504CC3EA9403EB94005043EAF8EBF934
:1045C000E875F005A4C8AEF02EFE75F005E9A42E3E
:1045D000F9747228F582740439F583E07004790265
:1045E0008030EA75F005A4CAA8F028F875F005EB4C
:1045F000A428FB74D72AF58274043BF583809F7945
:1046000012800F900443E0F8E9C3988C828D83F008
:104610007900024B7274F71212BFE9FE74056E60E6
:104620002374136E601E74146E601974156E60141A
:10463000741A6E600F74296E600A743B6E6005799F
:10464000120246FAC3EB940F506AC3EA9403EB9448
:10465000005061EAF8EBF9E875F005A4C8ACF02C5D
:10466000FC75F005E9A42CF9747228F582740439FC
:10467000F583E070047902803DEA75F005A4CAA8CC
:10468000F028F875F005EBA428FB746F2AFA74047F
:104690003BFBEA2469F582EB3400F583E0640170AA
:1046A00038EA246AF582EB3400F583E0640270088E
:1046B000793A804679128042EA24F6F582EB34009A
:1046C000F583EEF0EA241DF582EB3400F583E4F087
:1046D000A3F07902122E89801FEA24F6F582EB34CA
:1046E00000F583EEF0EA241DF582EB3400F583E457
:1046F000F0A3F07902122E7D7900024B7274E81259
:1047000012BF8A088B098917EC4D6014E9C3941C09
:10471000500E74181212B3E0FB600A74016B60054E
:104720007912024990C3E509940F5042C3EA9403F9
:10473000E50994005038A808E875F005A4C8AAF067
:104740002AFA75F005E509A42AF9747228F582742D
:104750000439F583E0700479028015746F28FE74C3
:104760000439FF90078BE0700A79070249907912AB
:10477000024990EC24FEFCED34FFFD8C828D83E534
:1047800017F0EB7004740280027401A3F0EC24FEB5
:10479000FCED34FFFDEE2463FAEF3400FB122EEF44
:1047A00090078BE014F090043FE064086008E06438
:1047B00007600302498E90046DE065087002E50908
:1047C000600302498E7900EEFAEFFB121A4F9061F6
:1047D000D0E0700302498E90078FE064016003020D
:1047E000498EEE241DF582EF3400F583E0F8A3E056
:1047F000F9E849700302498EA2AFE433F516C2AF5F
:10480000122FD38A148B151230578A0C8B0D8C0EF5
:104810008D0F8A088B098C0A8D0B7510017511009C
:104820007512007513007808791012107878081244
:1048300014CE851482851583A3A3121156121EE58A
:10484000740412127EE964016003024988EE242E8A
:10485000F582EF3400F583E02406F508A3E0340088
:10486000F509E4F50AF50B780C7908121078780C44
:104870001214CE851482851583A3A3121156121E1D
:10488000E5740412127EE964016003024988E514AC
:104890002408F510E5153400F511851082F5831212
:1048A00014E5AA0CAB0DAC0EAD0F121F3E74041232
:1048B000127EEE242EF508EF3400F509850882F506
:1048C000831214E9121E94740212127E8A0C8B0D4C
:1048D0008C0E8D0F7410780C1210408E828F83A373
:1048E000A3A3A3A3A3A3A3A3E0F8A3E0F98E828FBD
:1048F00083A3A3A3A3A3E8F0A3E9F0E8250CF8E9B8
:10490000350DF98E828F83A3A3A3A3A3A3A3E8F0FD
:10491000A3E9F0851082851183C082C08385088257
:10492000850983E0F508A3E0F509780C7908120FF2
:104930003CD083D082780C12108B7508FF7509FF6C
:10494000750AFF780C79081210D9851482851583B1
:10495000A3A3E50CF0A3E50DF0A3E50EF0A3E4F0AE
:10496000EE2435F582EF3400F583E0C0E0EE243428
:10497000F582EF3400F583D0E0F0EEFAEFFB12168B
:10498000D2AA14AB15122FB5E516A2E092AF7900AA
:104990007F1002139174F51212BFE9FE8A098B0A87
:1049A000C394284003024AFDEAC394264003024A06
:1049B000FDEB602D7401650A60277402650A6021B1
:1049C0007403650A601B7404650A60157405650A42
:1049D000600F7406650A60097407650A6003024A7D
:1049E000FD90043FE060057921024A9A1230451299
:1049F0002DA575E1F17A0179011231597A297B41AE
:104A00007C767D711230C37A00EEF9123171790033
:104A100012313B90045BE0F9122DB774022509F5C1
:104A2000D9850AD98509D9E50A602414606F146014
:104A30007D14602E147003024ABC147003024ACA2B
:104A4000147003024AD8147003024AE9024AFDE5D1
:104A500009600F758291758381FFE0F5D9A31FEF7F
:104A600070F875E195EE900461F0E509A3F0E50AB0
:104A7000A3F0A3E4F0A3F0A3F0A3F0A37480F0905C
:104A8000043F7409F0906182E0D2E5F079191231A7
:104A9000237A007B0012302D7900025EA3E50960C5
:104AA000C1F50875D90F1508E50860B680F5E50968
:104AB00060B0FD75D9551DED60A880F7E50960A2CD
:104AC000FC75D9FF1CEC609A80F7E5096094FB75D2
:104AD000D9001BEB608C80F7E5096086FA75D9F088
:104AE0001AEA7003024A6280F4E5097003024A621E
:104AF000F875D9AA18E87003024A6280F479128026
:104B00009974F71212BFE9FEC39428400479128009
:104B10005790043FE060047921804D123045122DFA
:104B2000A575E1F17A01790012315F7A297B417C28
:104B3000767D711230C37A00EEF91231717900126C
:104B4000313BEE900461F0A3E4F0A374FFF0A3E422
:104B5000F0A3F0A3F0A3F0A37480F090043F740AD4
:104B6000F0791812312379008008E98E828F83F062
:104B700079007F0102139174F61212BF90043FE096
:104B800064096009E0640A600479218061E5E170EC
:104B9000FC75E101E0640970147A647B04123165EC
:104BA000790512313B79007A007B00802FE0640A9E
:104BB000702D75086875090478081214D27C667D1A
:104BC000047A647B0412316B740212127E7905122E
:104BD000313B7901900464E0FAA3E0FB122AD5127C
:104BE0002D9F122D9375E1F190043FE4F0F97F02BF
:104BF00002139174F61212BFEAFEEBFF8908740BE0
:104C00001212B3E0F509740C1212B3E0F8A3E0F944
:104C1000E508605F74016508601574036508602F1E
:104C2000740265086029740465086003024CCEE8CC
:104C3000497003024CCEE5096009740165096003FF
:104C4000024CCE740365086006740265087046EE77
:104C50002460FAEF34FFFBC3EA9461EB943F506E9B
:104C6000EC2460FAED34FFFBC3EA9461EB943F401F
:104C700024805BEE24E0FAEF34FFFBC3EA94E1EB1F
:104C8000943F504AEC24E0FAED34FFFBC3EA94E190
:104C9000EB943F5039C3EC9EED9F4032740A1212E0
:104CA000B3E0FA600574016A7024740F1212B3E065
:104CB000FC600F74016C600A74026C600574036C14
:104CC000700C740E1212B3E0FB74075B700579125E
:104CD000024E2F90079AE064017005790C024E2F66
:104CE000E50890079DF074075BA3F0ECA3F0EA9051
:104CF0000793702FE4F090042CE0900794F0900458
:104D00002DE0900795F090042EE0900796F0900427
:104D10002FE0900797F0900430E0900798F090040F
:104D200031802E7401F0900432E0900794F09004EA
:104D300033E0900795F0900434E0900796F09004EB
:104D400035E0900797F0900436E0900798F09004D3
:104D500037E0900799F0740165087053E5099007F2
:104D60007EF088828983E090077FF088828983A320
:104D7000E0900780F088828983A3A3E0900781F008
:104D800088828983A3A3A3E0900782F08882898325
:104D9000A3A3A3A3E0900783F088828983A3A3A39E
:104DA000A3A3E0900784F090079BE4F0A3807D74B8
:104DB000046508704DE50990077EF088828983E0DC
:104DC00090077FF088828983A3E0900780F0888233
:104DD0008983A3A3E0900781F088828983A3A3A39A
:104DE000E0900782F088828983A3A3A3A3E09007C1
:104DF00083F088828983A3A3A3A3A3E0900784F010
:104E00008023EC70047900801974016C70047901BE
:104E1000801074026C70047902800774036C700552
:104E200079031230E790079BEEF0A3EFF0790002D0
:104E30004BEE74F61212BFE9FEC39420500BEE90B5
:104E400007A3F06023EA4B700479128023E0F50891
:104E500075090078081214D2EAFCEBFD7AA47B07EE
:104E6000123531740212127E9007A27401F079009B
:104E7000024BEE74F01212BFE9FE90043FE06409A9
:104E80007003024F9CE0640A7003024F9CE0640BC5
:104E90007003024F9CE0640C7003024F9CE0640DB1
:104EA0007003024F9C90079DE0601664016012E061
:104EB0006403600DE064026008E064046003025073
:104EC0000E900793E060076401600302500E9007A4
:104ED0009DE064036005E06402701090079BC3E0EE
:104EE00094A0A3E09400500302500EEE7003024F12
:104EF000A714600302500E90079AE0640170030249
:104F00004F9C90079DE0600964016005E0640470B7
:104F10000B122FDFE954FD6003024F9C7901122F21
:104F2000C7900791EAF0A3EBF090079A7401F09014
:104F3000043FE0706E1230578A088B098C0A8D0B83
:104F4000750C03750D00750E00750F007808790C4F
:104F5000121078750CFF750DFF750EFF7808790C2F
:104F60001210D9900791E0F8A3E0F5838882A3A3FB
:104F70007808121147900791E0F8A3E0C82406F5DD
:104F800082E83400F583E4F0A3F0122DD5E9601037
:104F90007A917B07122FCD90079AE4F07921800552
:104FA000122FAF7900806B90079AE060EFA2AFE418
:104FB00033FFC2AF7A917B07122FCD90079AE4F0AE
:104FC000122FE5E97041123045906182E0C2E6F0AF
:104FD000E5E170FC75E1017591BF75E1F190044563
:104FE000E0640170187A207B0090043EE0F91236EC
:104FF000157A207B0090043EE0F91235917A0090FA
:10500000043EE0F91235E5EFA2E092AF8095791207
:1050100080937F0802139174F71212BFEAFEEBFF30
:10502000122DBDE9F88E828F83F074806870047948
:105030003080027900024B7274F61212BFE9FEC38F
:105040009420500BEE9007C3F06023EA4B70047974
:10505000128023E0F50875090078081214D2EAFCE2
:10506000EBFD7AC47B07123531740212127E900771
:10507000A27401F07900024BEE74F71212BFE9FE40
:10508000600574016E704574091212B3E0FF60058B
:1050900074016F7037EA24FCF8EB34FFF9C3E8942D
:1050A000FDE9943F5026EC24FCF8ED34FFF9C3E809
:1050B00094FDE9943F5015C3EA9CEB9D400E740AA1
:1050C0001212B3E0F8600A740168600579120251A7
:1050D0006F9007F0E064017005790C02516FEEA348
:1050E000F0E89007F6F0EF9007E8702FE4F09004F6
:1050F0002CE09007E9F090042DE09007EAF090048E
:105100002EE09007EBF090042FE09007ECF0900475
:1051100030E09007EDF0900431802E7401F090049F
:1051200032E09007E9F0900433E09007EAF0900451
:1051300034E09007EBF0900435E09007ECF0900439
:1051400036E09007EDF0900437E09007EEF090071E
:10515000F2EAF0A3EBF0A3ECF0A3EDF0E870047931
:10516000008007740168700579011230ED79000242
:105170004B7274F01212BFE9FEEAFF90043FE06444
:105180000970030252E2E0640A70030252E2E06432
:105190000B70030252E2E0640C70030252E2E0641E
:1051A0000D70030252E29007F1E0600764016003B2
:1051B00002537A9007E8E060076401600302537AC3
:1051C0009007F2E024FCF8A3E034FFF9C3E894FD73
:1051D000E9943F400302537AA3E024FCF8A3E034AF
:1051E000FFF9C3E894FDE9943F400302537A900726
:1051F000F2C0829007F4E0F8A3E0F9758307D0824B
:10520000C3E098A3E099500302537AEF6008740159
:105210006F600302537AEE70030252DC14600302E3
:10522000537A9007F0E0640170030252E2790212AF
:105230002FC79007E6EAF0A3EBF09007F07401F0B7
:105240009007EFF0EF9007F7F090043FE060030263
:1052500052D7122DF91230578A0C8B0D8C0E8D0FF0
:10526000750810750900750A00750B00780C79082F
:105270001210787508FF7509FF750AFF780C790818
:105280001210D99007E6E0F8A3E0F5838882A3A383
:10529000780C1211479007E6E0F8A3E0C82406F561
:1052A00082E83400F583E4F0A3F09007F4E0F50819
:1052B000A3E0F509E4F50A780C7908121078900754
:1052C000E6E0F8A3E0C8240EF582E83400F5837820
:1052D0000C121147122FAF79000250129007F0E024
:1052E0007004792180F3A2AFE433F508C2AF7AE607
:1052F0007B07122FCD9007F0E4F0122FE5E97046FE
:10530000123045906182E0C2E6F0E5E170FC75E1A3
:10531000017591BF790112312F75E1F1900445E0DB
:10532000640170187A207B0090043EE0F912361573
:105330007A207B0090043EE0F91235917A009004C7
:105340003EE0F91235E5E508A2E092AF9007F6E0FD
:105350006401700612310B0252D7A3E064016003AE
:105360000252D79007F6E060030252D71230CF12F4
:10537000310B79011231170252D779120252D974C6
:10538000F71212BF90043FE064076005790C0254E5
:1053900035EC4D7003025438C3EB940F40030254B4
:1053A00038C3EA9403EB94004003025438EAF8EB64
:1053B000F9E875F005A4C8AEF02EFE75F005E9A475
:1053C0002EF9747228F582740439F583E07004793B
:1053D000028062EA75F005A4CAA8F028F875F00505
:1053E000EBA428FB746F2AFA74043BFB7E008C82CA
:1053F0008D83E0C0E0EEF8C3E498F895E0F9EA2880
:10540000F8EB39F9E824D1F582E93400F583D0E0EE
:10541000F00E8C828D83A3AC82AD83EEC3941040DA
:10542000CDEA24D3F582EB3400F5837401F07905DD
:10543000122E7D7900024B72791280F9C082C083EE
:1054400090043FE064076005790C0254D3C3EB94E9
:105450000F5068C3EA9403EB9400505FEAF8EBF94D
:10546000E875F005A4C8ACF02CFC75F005E9A42C97
:10547000F9747228F582740439F583E070047902B6
:105480008051EA75F005A4CAA8F028F875F005EB7C
:10549000A428FB746F2AFA74043BFBEA24DCF5822F
:1054A000EB3400F583E064017015EA24F6F582EB35
:1054B0003400F5837406F07902801379128014EABF
:1054C00024DDF582EB3400F5837406F0790D122E9D
:1054D0007D79000262CC74E81212BF74FB1212686C
:1054E00074031212B3EAF0A3EBF074011212B3ECDE
:1054F000F0A3EDF0E9851882851983F07429121262
:10550000B3E0FEA3E0FF742B1212B3E0F508A3E0B2
:10551000F509900807E0640170030256C37904128C
:105520002FD9E9640170030256C390043FE0640977
:1055300070030256C3E0640A70030256C3E0640BB2
:1055400070030256C3E0640C70030256C3E0640D9E
:1055500070030256C374031212B3E024FCF8A3E0F4
:1055600034FFF9C3E894FDE9943F400302584974BD
:10557000011212B3E024FCF8A3E034FFF9C3E8946D
:10558000FDE9943F400302584974031212B3C082EC
:10559000C08374011212B3E0F8A3E0F9D083D08283
:1055A000C3E098A3E0995003025849741E1212B345
:1055B000E0F50AA3E0F50B851882851983E0600900
:1055C000640160030258498009E50A450B70030233
:1055D0005849741D1212B3E0600764016003025859
:1055E0004974201212B3E060076401600302584955
:1055F000C3E5089EE5099F50030258497421121221
:10560000B3E0FAA3E0FBEA24FAF8EB34FFF9C3E8CD
:10561000947BE9940C400302584974231212B3E0BE
:10562000F8A3E0F974231212B3E8F0A3E9F07423AD
:105630001212B3E024FAF8A3E034FFF9C3E8947B34
:10564000E9940C400302584974231212B3C3E09A40
:10565000A3E09B500302584974251212B3E0F8A34B
:10566000E0F974251212B3E8F0A3E9F074251212E0
:10567000B3C3E094F4A3E0940140030258497427B3
:105680001212B3E0F508A3E0F509E50824F6F8E501
:105690000934FFF9C3E89477E9940C4003025849B0
:1056A0007901122FD9E96401700F90079DE0601312
:1056B0006401600FE06404600A7940122FD9E96444
:1056C0000170057921025AA685080C85090D74031D
:1056D000780C121255F50EF50F74251212B3E02452
:1056E00001F514A3E03400F515E4F516F51774235D
:1056F0001212B3E0F8A3E0F9E8C333F8E933F9880C
:10570000108911E4F512F51378147910120F3C7812
:105710000C7914120A745069122EC5E964017005DF
:10572000793A025AA690046CE0604774231212B3CF
:10573000E0FEA3E0FFEEC333FEEF33FF7AFF7BFF13
:10574000122EB38A0C8B0D7403780C12124690043F
:105750006CE0F8C3E50C98E50D94004039C3EA9E6F
:10576000EB9F5020EEF8EFF91211DD8B0DEA450D9D
:105770007024851882851983E07020E50A450B7036
:105780001A025849EAF8EBF9EEFAEFFB1211DD8B39
:105790000DEA450D60DC793B025AA6122E9B8A0C5D
:1057A0008B0DAE0CAF0DEE4F70057909025AA68E27
:1057B000828F83A3A3A3A3E090080EF074031212B8
:1057C000B3E0F8A3E0F9900808E8F0A3E9F0740169
:1057D0001212B3E0F8A3E0F990080AE8F0A3E9F0A8
:1057E000851882851983E090080DF0EEF8EFF97ABC
:1057F000857B078A828B83E0C0E0E8245DF582E93F
:105800003400F583D0E0F08A828B83A3AA82AB8335
:1058100088828983A3A882A983EA648A7003EB64DF
:105820000770D0EE245DFCEF3400FDEEFAEFFB12C2
:105830002E8FEE2436F582EF3400F583E0C3940218
:10584000500CEEFAEFFB122EA17912025AA6850A2D
:1058500082850B83E090077FF0850A82850B83A306
:10586000E0900780F0850A82850B83A3A3E0900770
:1058700081F0850A82850B83A3A3A3E0900782F0C1
:10588000850A82850B83A3A3A3A3E0900783F085F9
:105890000A82850B83A3A3A3A3A3E0900784F074DB
:1058A000201212B3E09007FFF074201212B3E070E0
:1058B0002D90042CE0900800F090042DE090080159
:1058C000F090042EE0900802F090042FE09008037E
:1058D000F0900430E0900804F0900431802B9004A4
:1058E00032E0900800F0900433E0900801F090045A
:1058F00034E0900802F0900435E0900803F0900442
:1059000036E0900804F0900437E0900805F0741D2C
:105910001212B3E090077EF0122ED1EE2426F5820B
:10592000EF3400F583121162122D69EE2422F58204
:10593000EF3400F58312116274231212B3E0F8A35E
:10594000E0F9EE242EF582EF3400F583E8F0A3E9C8
:10595000F0EE2432F582EF3400F583E508F0A3E59C
:1059600009F074251212B3E0F8A3E0F9EE2430F543
:1059700082EF3400F583E8F0A3E9F090080FE0C06F
:10598000E0EE242AF582EF3400F583D0E0F0EE2437
:105990002BF582EF3400F5837402F0122F01E975C4
:1059A000F00C84E5F02405C0E0EE2437F582EF34F6
:1059B00000F583D0E0F090080C7425F090046CE0C2
:1059C000C39402400579011230937904122FC790D5
:1059D00007FDEAF0A3EBF09008077401F09007FDD3
:1059E000E0F8A3E0C82416F582E83400F583741DBE
:1059F000F0A3742EF09007FDE0F8A3E0C82414F59E
:105A000082E83400F5837417F090043FE0600302ED
:105A10005AA41230578A0C8B0D8C0E8D0F7508A06E
:105A2000750900750A00750B00780C79081210785A
:105A30007508FF7509FF750AFF780C79081210D9EF
:105A40009007FDE0F8A3E0F5838882A3A3780C1209
:105A500011479007FDE0F8A3E0C82406F582E8347A
:105A600000F583E4F0A3F090080AE0F508A3E0F560
:105A700009E4F50A780C79081210789007FDE0F82F
:105A8000A3E0C8240EF582E83400F583780C1211E7
:105A9000478E828F83A3A3A3A3E0F9122DFF122EBA
:105AA00005122FAF7900740512127E024990C08250
:105AB000C083900807E060087904122FD9E97004C8
:105AC000790C8037900807E4F0122FE5E9702A90EE
:105AD0000445E0640170187A207B0090043EE0F9F0
