:1000000002079A020803FFFFFFFFFF02080BFFFF32
:10001000FFFFFF020813FFFFFFFFFF02081BFFFFA8
:10002000FFFFFF020823FFFFFFFFFF02082BFFFF78
:10003000FFFFFF020833FFFFFFFFFF02083BFFFF48
:10004000FFFFFF020843FFFFFFFFFF02084BFFFF18
:10005000FFFFFF020853FFFFFFFFFF02085BFFFFE8
:10006000FFFFFF020863FFFFFFFFFF02086BFFFFB8
:10007000FFFFFF020873FFFFFFFFFF02087BFFFF88
:10008000FFFFFF020883FFFFFFFFFF02088B74F7EB
:1000900012065774FC120751750804750900780898
:1000A00012077A74021207B6AC82AD837A907B0095
:1000B000790112045B740212073774021207B6E06A
:1000C000FAA3E0FB851882851983E06A7003A3E038
:1000D0006B8518828519837014E0F47003A3E0F433
:1000E000601B12034FE849600B790180121203551F
:1000F000E8497009EA4B70057901120546790074E8
:10010000040201F174F712065774FF1207518005BB
:10011000900283E4F07C017D00851882851983AA12
:1001200082AB8379001205E08B09EA45097003026E
:1001300001ED900283E0600B14601A14603E1460BD
:100140007980D2851882851983E064FE70C7900299
:1001500083740180BF851882851983E0644260053D
:10016000E0640270AB9002837402F0900281E4F0CC
:100170009002801201F92403900282F08518828592
:100180001983E0F8900280E0681201F9C0E0900263
:1001900081E0F8748128F58274013400F583D0E0A1
:1001A000F0900281E004F0F8900282E068600302BF
:1001B00001159002837403020114E4F0900280E0C0
:1001C000F8851882851983E06860030201159001A3
:1001D00082E0541F640D60030201151202027900CF
:1001E000A3E064837009A3E07005098002790074BC
:1001F000011207377F020206BDF085188285198338
:10020000E02274F512065774FC120751750800902D
:100210000183E014600D24FE6032147003020315A4
:10022000020331750A10750B00780A12077A7C8672
:100230007D01900184E0FAA3E0F9EA2400E93402A8
:10024000FB1204E07402120737020334A3120355B1
:10025000900284E8F0A3E9F012035B8A0A8B0BA8F2
:100260000AA90B900284E0687003A3E069600302AE
:100270000310750A04750B00780A12077A740212CB
:1002800007B6AC82AD837A907B00790112045B746F
:100290000212073774021207B612035585188285B9
:1002A0001983E0687003A3E069605412034F74027D
:1002B0001207B6E8F0A3E9F085188285198374FF68
:1002C000F0A3F0750A01780A12077A74021207B6D1
:1002D000AC82AD837A247B021204E07402120737E9
:1002E000750A04780A12077A74021207B6AC82AD56
:1002F000837A907B00790112045B74021207371233
:10030000034F74021207B6E0687003A3E06960242B
:10031000750807801F7E017F0075C9A075C950EE62
:10032000F912054612040BEE9480EF9400500580FC
:10033000E87508019001817401F0900183E0D2E733
:10034000F0E508A3F074041207377F040206BD85A8
:100350001882851983E0F8A3E0F92274F412065795
:1003600074FC1207517508007509007E007F027544
:10037000C9A075C95074246E700374026F606A75E9
:100380000A04750B00780A12077A74021207B6ACD9
:1003900082AD83EEF50AEF5401F50B7402780A1270
:1003A0000767AA0AAB0B8E0A8F0B7409780A12072B
:1003B0008BA90A12045B7402120737750C00850CB6
:1003C0000A851882851983E582250AF582E583343A
:1003D00000F583E0F9AA08AB091204158A088B0915
:1003E000050CE50CC3940440D512040B94FA500399
:1003F00002036FE4F9AA08AB09120415E4F9120428
:100400001574041207377F050206BDEE24010EEFB6
:100410003400FFC32274F712065774FF1207517C91
:10042000088A088B09740F780812078B8518828553
:100430001983E508F0EAC333FAEB33FBE9A2E7508E
:100440000474014AFAE0600874216AFA74106BFBC4
:10045000E9C333F91CEC70C90201EF74F5120657B9
:100460008908740F5508F50A750B00740B780A1289
:100470000767EA2400F8EB3480F9E82400E9350B3B
:10048000F9E5C7F509A2AFE433F50AC2AFE508C440
:10049000540FFAE5C754F84AF5C7740B1207B6E0D3
:1004A000FAA3E0FB801C88828983E08C828D83F034
:1004B00088828983A3A882A9838C828D83A3AC823E
:1004C000AD83EAFEEBFFEE24FF1AEF34FFFBEE4FA5
:1004D00070D48509C7E50AA2E092AF7F040206BD89
:1004E00074F7120657ED900286F0ECA3F0A3746245
:1004F000F0A37473F0A3E0541FF074091207B6E080
:10050000F508A3E0F509E508333354FC90028BF0BD
:100510007406780812078BE50890028AF090028C26
:100520007412F0A37442F053D1FE75D601EA9062C2
:1005300071F0EBA3F0906270E0D2E1F0E0A2E7404E
:10054000FB7F020206BDC082C083E9C333906272A2
:10055000F0906270E0D2E0F0D083D0822274F81282
:10056000065775080075868075C48053F1FE43F305
:100570000C53FF3F85FFFF75C2D875C50B75C402CC
:100580007586C0803BE586A2E150295386FD900226
:100590008EE0F8900290E028FAA3E034008A82F519
:1005A00083E0F5C190028EE004F00890028FE068CD
:1005B0007002E4F0E586A2E25006120104E9420866
:1005C00075C9A075C95090028FE070B9E50860E464
:1005D000E586A2E040DEC2AF75C9AB75C95B80FE9F
:1005E000C082C083E586A2E2500BE5C18A828B837C
:1005F000F07A0180027A007B00D083D0822253BE41
:10060000FBE59DA2E650FAE5C654804449F5C6E5EF
:100610009E547F644970F853C67FE59EA2E740FA76
:1006200053C680E59E547F70FA43BE049062707496
:1006300008F07402F5D575D48612008EE964017055
:100640000302080075C90043C90812055DC2AF75F1
:10065000C9AB75C95B80FE2518C582C0E0E51934B9
:10066000FFC583C0E0E518C3958224F910AF088563
:1006700083198582188008858319858218D2AFCEA8
:10068000F0A3E520F0A37808E608F0A3DEFAEFF087
:10069000A3E58124FBF8E608F0A3E608F0A3080828
:1006A000E608F0A3E608F0A315811581D0E0FED09E
:1006B000E0F815811581E8C0E0EEC0E022851983DD
:1006C000851882E0A3FEE0A3F5207808E0A3F608F1
:1006D000DFFAE0A3FFE0A3C0E0E0A3C0E0E0A3C036
:1006E000E0E0A3C0E010AF08858218858319800878
:1006F000858218858319D2AFD083D082221207C594
:10070000B90003020716E490018078137902800291
:10071000F0A3D8FCD9FA1205FE1207C02518F582FD
:1007200010AF08F518400215198008F51840021599
:1007300019D2AF85198322C0D0251810AF08F5183B
:10074000500205198008F51850020519D2AFD0D013
:1007500022251810AF08F518400215198008F51861
:1007600040021519D2AF22700422600D18C6C3339F
:10077000C608C633C6D5E0F4182274028000C0E073
:10078000F40412071CD0E01207A922600C08C6C3AB
:1007900013C618C613C6D5E0F42275D00075813F84
:1007A0007518807519010206FDCAC0E0E6F0A308BD
:1007B000DAFAD0E0FA222518F582E43519F5832219
:1007C00000000080FB790122FFFFFFFFFFFFFFFF1A
:1007D000FFFFFFFFFFFFFFFFFFFFFFFFFFFFFFFF29
:1007E000FFFFFFFFFFFFFFFFFFFFFFFFFFFFFFFF19
:1007F000FFFFFFFFFFFFFFFFFFFFFFFFFFFFFFFF09
:10080000020A1A021D37FFFFFFFFFFFFFFFFFFFF76
:10081000FFFFFFFFFFFFFFFFFFFFFF022247FFFF7A
:10082000FFFFFFFFFFFFFFFFFFFFFF0221A7FFFF0B
:10083000FFFFFFFFFFFFFFFFFFFFFF0221CCFFFFD6
:10084000FFFFFF022145FFFFFFFFFFFFFFFFFFFF4D
:10085000FFFFFF021DAAFFFFFFFFFFFFFFFFFFFFDC
:10086000FFFFFFFFFFFFFFFFFFFFFFFFFFFFFFFF98
:10087000FFFFFFFFFFFFFFFFFFFFFF02216DFFFFF5
:10088000FFFFFF021BA3FFFFFFFFFFFFFFFFFFFFB5
:10089000196E196E0001E224F4241E25E824FF00DD
:1008A00000B4000028002800283075A000A000A097
:1008B00000A00000080008E001F000100010001087
:1008C00000100010001000500050005000100010E8
:1008D00000D0070000000000000F000100050030FC
:1008E0007507001000010081FF00000000FF0202F8
:1008F0000208025000A0000000E80302D0820100BC
:1009000000498202CC820100002F1302C88201003C
:1009100000AF0202CC82010000301302C682010047
:1009200000C50202CC82010000311302C482010022
:1009300000C70202CC82010000321302C08208000C
:1009400000C80202CC82010000331302BE82010003
:10095000003413FFFFFFC02EC02EC02EC02EC02EAD
:10096000C02EC02EC02EC02EC02EC02EC02EC02E17
:10097000F4301231EE30FFFF01E803053F10020AA8
:100980000000DE370000FC37FFFF01434F444157B2
:100990006865656CFF00E5C754F84401F5C7790147
:1009A0002200000080FB120996B90003020A04E449
:1009B00079217808B800028004F709D8FCE4792985
:1009C0007802B800028004F709D8FCE4900280782D
:1009D0005879118002F0A3D8FCD9FA9012D7AA82D4
:1009E000AB83900896780179028015E493A3AC82DA
:1009F000AD838A828B83F0A3AA82AB838C828D83A2
:100A0000D8E9D9E77582A37583FF7401120A2C75A2
:100A100082A17583097400120A2C75D00075813F7C
:100A2000751880751902759F000209A6C09FF59F71
:100A3000E473D09F22D083D082C09FE493C0E0743F
:100A40000193C0E0740293F59F22E76670100809D5
:100A5000E766700A0809E76670040809E76622E09D
:100A600066701008A3E066700A08A3E066700408C8
:100A7000A3E06622C3E7960809E7960809E7960807
:100A800009E79622C3E09608A3E09608A3E096083B
:100A9000A3E09622C008C3E096F50808A3E09642BA
:100AA0000808A3E096420808A3E09645087001D321
:100AB000D00822080808E630E71112102C120ACBE1
:100AC000080808C64480C618181822181818E979AA
:100AD0009EC608CAC608CBC608CCC6C37020799685
:100AE000CACBCC7019798ECBCC70137986CC700EB2
:100AF000F9802ACA33CACB33CBCC33CC331930E795
:100B0000F2CCCBCA3350147004EA30E00DE4CA3A98
:100B1000CACB3BCBCC3CCC500209C3E913C6CC18A2
:100B20002313C6CB18C6CA18C6F922E6C333184623
:100B30001846184622E7C3331947194719472218A0
:100B40001818E6084608700AE608C3337005E6334D
:100B5000F4220822191919E7094709700AE709C39D
:100B6000337005E733F4220922E6084608C313462A
:100B700008336002E633F422E7094709C313470943
:100B8000336002E733F422120B69601C120B7860A9
:100B900017120B2B7007120B357001D322C0D01225
:100BA0000B357006D0D0B322C32233D0D0501430CE
:100BB000E0F6C3E7960809E7960809E7960809E70B
:100BC00096B32220E0D5E6970809E6970809E6974C
:100BD0000809E697B32200120B69604F120B786088
:100BE00012E7548066F6120B3F7011120B35703B02
:100BF000090909F4F618F618F618F622120B5470C3
:100C000015120B2B08080860EAE6447FF618768078
:100C100018E4F618F622120B2B6016120B35701220
:100C2000E4F608F608F608E65480F60909091818EB
:100C30001822EAC0E0EBC0E0ECC0E0EDC0E0E687DF
:100C4000F0A4FBACF008E687F0A42CFCE435F0FA45
:100C50001809E687F0A42C4B60027401CA35F0FC39
:100C6000E433FB09E687F0D2F7A42CCB35F0FC196E
:100C700008E687F0A42BCC35F0FBE433FD0819E639
:100C800087F0D2E7A42C4ACB35F0CD3400FC09E63E
:100C900087F0D2E7A42DCC35F0FDE433FA0918E64D
:100CA00087F0D2F7A42CCD35F0CA3400FC08E687D3
:100CB000F0D2E7D2F7A42ACC35F07A7E20E70B0AEF
:100CC000CB33CBCD33CDCC33CC33CB3350147004BA
:100CD000ED30E00ED2F1E4CD3DCDCC3CCC3B500527
:100CE000DA05C2F1EB547FC63308E63392F0FBE736
:100CF0003309E733C39A502D2B70190C0D4C4D70EE
:100D0000151806E608C333700D20F10AA2F013F699
:100D1000E418800B4024E4F630F002768018F618D0
:100D2000F618F68024D33B14501074FFA2F013F68B
:100D3000187680E418F618F6800FA2F013F618E67D
:100D40003303F618ECF618EDF6D0E0FDD0E0FCD059
:100D5000E0FBD0E0FA22120B697004181818221276
:100D60000B78700D74FFF61819F61819F61819F6A5
:100D700022E7548066F6120B2B700F120B3570F0C1
:100D800014F608F608F608F680D1120B35700CF64A
:100D900008F608768008E6447F80EC120B57700C4A
:100DA000120B4260BFE65480F6E480BB120B427027
:100DB0000519191980A5E869700C763F1876801816
:100DC000F618F6E8F922E6CDC0E018ECC0E0E6330C
:100DD000CD33CDD313F6E719FCE7191933CC33C360
:100DE000947F400ECD9D502408E65480F6E418F61A
:100DF000800FF4043D14501408E6447FF618768002
:100E0000E418F618F6D0E0FCD0E0FD22CCD313CCE9
:100E1000FD18E4C6CBC0E018E4C6CAC0E00808ED7F
:100E200008C633E613F618E433C675F003C3CA9751
:100E3000CA09CB97CB199C40047D08802EBD0003C6
:100E4000020EFF16B6FF050606081618C3CA33CAF7
:100E5000CB33CB33CA27CA09CB37CB193CC37D0868
:100E6000803E187D0820E75CC633C6CA33CACB3340
:100E7000CB33DDF1D5F0EB30E77BCA97CA09CB97CE
:100E80004ACB199C406F4B7025E620E02180661804
:100E90007D08C3CA97CA09CB97CB199CD3C633C662
:100EA000CA33CACB33CB3350C9DDE7D5F0E1D3E445
:100EB000C636C608C636C608C636C608C636C618FA
:100EC00018188031C3CA97CA09CB97CB199CB34075
:100ED00097C633C6CA33CACB33CB33DD34D5F02EF5
:100EE000C6A2E0C640C8CA27CA09CB37194A70BE95
:100EF000CB3CB480B90808E63308E633601F181805
:100F000018D0E0FAD0E0FBD0E0FCD0E0FD22187D64
:100F100008CA27CA09CB37CB193CD3808013F618EF
:100F2000E4B67F11F618B6FF0EF618C60470D208A4
:100F300008768080CAF618F618F680C5080808EA10
:100F4000C0E0EBC0E086F0E7A4FA180986F0E7A459
:100F50002AFA180986F0E7A42AFA180986F0E7A405
:100F60002AFA1986F0E7A4FBE5F02AFA190886F0B8
:100F7000E7A42BFBE5F03AFA190886F0E7A42BFB6F
:100F8000E5F03AFA18180986F0E7A4C5F02BFBE45F
:100F90003AFA1908E7C5F0C6A426F6E5F03BFBE4EB
:100FA0003AFA1886F0E7A4F6E5F00826F6E43B08DE
:100FB000F6E43A08F6D0E0FBD0E0FA22E4CFC0E055
:100FC000E4CEC0E0E4CDC0E0E4CCC0E075F020C3E6
:100FD000E633F608E633F608E633F608E633F618A5
:100FE0001818EC33FCED33FDEE33FEEF33FFC3ECAA
:100FF0009709ED9709EE9709EF97191919400FFF17
:10100000EC97FC09ED97FD09EE97FE191906D5F04E
:10101000BEECF709EDF709EEF709EFF7191919D04A
:10102000E0FCD0E0FDD0E0FED0E0FF22181818E48C
:10103000C396F608E496F608E496F608E496F622D7
:101040006016080808C6C313C618C613C618C61308
:10105000C618C613C6D5E0EA22700908080822603F
:1010600016181818C6C333C608C633C608C633C612
:1010700008C633C6D5E0EA22E627F60809E637F6C1
:101080000809E637F60809E637F622E026F608A34F
:10109000E036F608A3E036F608A3E036F622E026AE
:1010A000F008A3E036F008A3E036F008A3E036F03D
:1010B00022C3E697F60809E697F60809E697F608C8
:1010C00009E697F622C3E096F008A3E096F008A39D
:1010D000E096F008A3E096F022E657F60809E657F6
:1010E000F60809E657F60809E657F622E056F6082C
:1010F000A3E056F608A3E056F608A3E056F622E071
:1011000056F008A3E056F008A3E056F008A3E05616
:10111000F022E046F608A3E046F608A3E046F6080B
:10112000A3E046F622E667F60809E667F60809E650
:1011300067F60809E667F622E0F608A3E0F608A3DA
:10114000E0F608A3E0F622E6F008A3E6F008A3E63E
:10115000F008A3E6F022E0FAA3E0FBA3E0FCA3E0A2
:10116000FD22EAF0A3EBF0A3ECF0A3EDF022CAC05D
:10117000E0E6F0A308DAFAD0E0FA22CAC0E0E0A381
:10118000C582CCC582C583CDC583F0A3C582CCC53D
:1011900082C583CDC583DAE6D0E0CA22C3E498F8DD
:1011A000E499F91211DD8026C3E49AFAE49BFBE985
:1011B00020E7E91211DDE498F8E499F922C3E498F4
:1011C000F8E499F91211DDE498F8E499F9C3E49A86
:1011D000FAE49BFB22EB20E7CFE920E7E0B900101F
:1011E000BB0008E88AF084F8AAF022E4FBC8FA22DF
:1011F000EB70227B10C833C8C933C9335007C39A78
:10120000C3DBF280069A50012ADBEAC833F4C8C96E
:1012100033F4C9FA2275F008E4C833C8C933C933B6
:10122000C99AC99B5004C92AC93BD5F0ECFBC83305
:10123000F4C8E4C9FA22600D08C6A2E713C618C6AE
:1012400013C6D5E0F322600C08C6C313C618C61334
:10125000C6D5E0F422700422600D18C6C333C60858
:10126000C633C6D5E0F41822251810AF08F518408B
:101270000215198008F51840021519D2AF22C0D006
:10128000251810AF08F518500205198008F51850F8
:10129000020519D2AFD0D0222518F58210AF08F57B
:1012A00018400215198008F51840021519D2AF85AB
:1012B0001983222518F582E43519F58322E4732574
:1012C00018C582C0E0E51934FFC583C0E0E518C346
:1012D000958224F810AF08858319858218800885C7
:1012E0008319858218D2AFCEF0A3E520F0A3780849
:1012F000E608F0A3DEFAEFF0A3E58124FAF8E608A9
:10130000F0A3E608F0A3E608F0A30808E608F0A3B7
:10131000E608F0A315811581D0E0FED0E0F8158134
:1013200015811581E8C0E0EEC0E0222518C582C015
:10133000E0E51934FFC583C0E0E518C3958224F9C0
:1013400010AF0885831985821880088583198582E6
:1013500018D2AFCEF0A3E520F0A37808E608F0A3FA
:10136000DEFAEFF0A3E58124FBF8E608F0A3E60837
:10137000F0A30808E608F0A3E608F0A3158115819C
:10138000D0E0FED0E0F815811581E8C0E0EEC0E0C5
:1013900022851983851882E0A3FEE0A3F520780852
:1013A000E0A3F608DFFAE0A3FFE0A3C0E0E0A3C0FB
:1013B000E0E0A3C0E0E0A3C0E0E0A3C0E010AF081D
:1013C0008582188583198008858218858319D2AF94
:1013D000D083D082020A32851983851882E0A3FE69
:1013E000E0A3F5207808E0A3F608DFFAE0A3FFE029
:1013F000A3C0E0E0A3C0E0E0A3C0E0E0A3C0E01031
:10140000AF0885821885831980088582188583191D
:10141000D2AFD083D08222C0D02518C582C0E0E5EB
:101420001934FFC583C0E0E518C3958224F310AFDB
:10143000088583198582188008858319858218D2CA
:10144000AFC8F0A3E9F0A3EAF0A3EBF0A37908E7B3
:1014500009F0A3D8FAECF0A3EDF0A3EEF0A3EFF0BF
:10146000A3D0E0F0A3D0E0F0A3D0E0F0A3E520F01B
:10147000A3E5F0F0A322851983851882E0C0E0A3DC
:10148000E0F9A3E0FAA3E0FBA37808E0F608A3DF05
:10149000FAE0FCA3E0FDA3E0FEA3E0FFA3E0C0E0D0
:1014A000A3E0C0E0A3E0F5D0A3E0F520A3E0A3F51E
:1014B000F010AF0885831985821880088583198507
:1014C0008218D2AFD082D083D0E0F8D0E03274045A
:1014D0008006740280027401C0E0F404121298D0F5
:1014E000E012116E227404800474028000CCC0E00B
:1014F000EDC0E0E518C39CCCAD1950011D10AF063E
:101500008C188D1980068C188D19D2AF12117BD0D2
:10151000E0FDD0E0FC22D083D082E9C0E0E493A3D8
:10152000C386F0C5F095F0F908E493A386F0C5F002
:1015300095F0700BE493A3C3994005E9048002A3DE
:10154000E475F002A42582F582E5F03583F583D0B9
:10155000E0F9E493A3C0E0E493C0E022D083D0821A
:10156000ECC0E0EDC0E0E493A3FCE493A3FDED4CFC
:10157000600D1215A8EC24FFFCED34FFFD80EFE4B4
:1015800093A3FCE493A3FDED4C600D1215E7EC244E
:10159000FFFCED34FFFD80EFD0E0FDD0E0FCE493F4
:1015A000A3C0E0E493C0E022C0E0C3E493960874D3
:1015B00001939618400FE4936670080874019366CF
:1015C0001870007019A3A3C3E4939608740193964E
:1015D00018A3A3400DD0E0D0E0D0E0021598A3A35B
:1015E000A3A3A3A3D0E022C0E0C0F088F0E49366F8
:1015F00070080874019366187000A8F0A3A3700B1C
:10160000D0F0D0E0D0E0D0E0021598A3A3D0F0D085
:10161000E022FFFF74F512132BEAFEEBFFEE2434F9
:10162000F8EF3400F988088909EE2435F582EF34A3
:1016300000F583E0F8EE2437F582EF3400F583E01F
:10164000F50AEC850AF0A4FCAAF0850AF0EDA42ABC
:10165000FDE82CF8E43DF97A257B001211DDEA85DE
:101660000882850983F0F8740758F97401B90002FB
:101670008004C333D9FCFAE8131313541FF8EE287F
:10168000F8EF3400F9E8245DF582E93400F583E0F1
:101690005A6008EE2434F582EF802CEE2434F58273
:1016A000EF3400F583E0C0E0EE2436F582EF34003D
:1016B000F583E0F5F0D0E084A8F0EE28F8EF3400F0
:1016C000F9E82438F582E93400F583E0F97F040273
:1016D00013D774F512132BEAFEEBFFEE2434F582D8
:1016E000EF3400F583E0C0E0EE2435F582EF3400FE
:1016F000F583D0E0F08E828F83A3A3A3A3A3A3A33B
:10170000C082C0838E828F83A3A3A3A3A3E0F8A388
:10171000E0F9D083D082E0C398F508A3E099F509F9
:10172000EE247FF582EF3400F583E064017069EE0A
:101730002480F582EF3400F583E0F8A3E0F98E828F
:101740008F83A3A3A3A3A3A3A3E0FCA3E0FD8E82A6
:101750008F83A3A3A3A3A3E0FAA3E0FBC3EA9CEBBC
:101760009D5010C3EC98ED99402EC3EA98EB995028
:1017700027800EC3EA98EB994007C3EC98ED994097
:10178000177C857D07EEFAEFFB122DFAEE247FF52C
:1017900082EF3400F583E4F0EE2434F8EF3400F9FE
:1017A000E8FCE9FDEE2435F582EF3400F583E0F83E
:1017B000EE2437F582EF3400F583E0F50AE508857D
:1017C0000AF0A4F508AAF0850AF0E509A42AF509AB
:1017D000E82508F8E43509F97A257B001211DDEADD
:1017E0008C828D83F0F8740758F97401B900028077
:1017F00004C333D9FCFAE8131313541FF8EE28F886
:10180000EF3400F9E8245DF582E93400F583E05A0D
:101810006008EE2434F582EF802CEE2434F582EF5C
:101820003400F583E0C0E0EE2436F582EF3400F5B5
:1018300083E0F5F0D0E084A8F0EE28F8EF3400F96A
:10184000E82438F582E93400F583E0F91221310209
:1018500016CDC082C083851882851983E0F8A3E085
:10186000F9C3EA9CEB9D5010C3EC98ED99401BC363
:10187000EA98EB995014800EC3EA98EB994007C39D
:10188000EC98ED994004790180027900D083D082F0
:1018900022EAC39CFAEB9DFB2274EF12132B9004F7
:1018A0003FE064086005E06407702A9061C8E0606A
:1018B0002490046DE0F4601DE0F875F005A4C8AA5A
:1018C000F02AF9746F28FE740439FF8E828F83A387
:1018D000A3A3E070030219C9906060E0C0E0EE24A9
:1018E00068F582EF3400F583D0E0F0750C18750DC3
:1018F00008750800750900E5D914F50AE5D95403FF
:10190000F50E60177403650E605CE50A6010EE2446
:1019100067F582EF3400F583E070030219AE90089A
:1019200013E06401602AEE2482F582EF3400F5832F
:10193000E06004780480027800850A08E508C3980E
:10194000FA95E0FB122B3C8A088B09EA45097005E1
:101950001230B28074EE2482F582EF3400F583E019
:1019600070048A0C8B0DE50A6012850C82850D834C
:10197000F50BE5D9F0A3150BE50B70F6EE2482F517
:1019800082EF3400F583E0604474FC250AF50A78A0
:101990000C1214D2AC0AA90EEEFAEFFB122EBA7496
:1019A0000212127EE97026AA08AB09123850793D5E
:1019B0008E828F83A3A3A3A3E0FA7B00122A16EEE4
:1019C000FAEFFB122E24122F1A7900807D74036522
:1019D0000E6056850A1075110078101214D2AC0CE6
:1019E000AD0DAA08AB09122E96740212127EEE24D7
:1019F00068F582EF3400F583E064807004747F80C2
:101A000001E0F50C780C1214D6E50EF50C780C12EA
:101A100014D6A90AAC08AD0990046DE0FA7B001257
:101A200029D4740212127E801C90043FE06408AC3A
:101A30000CAD0D7009EEFAEFFB122EEA8007EEFAFC
:101A4000EFFB122F801230BE79017F0A0213D77488
:101A5000F512132B74FC121268EAFEEBFF8908A240
:101A6000AFE433F509C2AF806AEE2463F8EF3400C7
:101A7000F97A007B00A2AFE433F50AC2AF8882890D
:101A800083E0FCA3E0FDEC4D603A88828983E0FAB4
:101A9000A3E0FB8A828B83E0FCA3E0FD888289833C
:101AA000ECF0A3EDF08A828B83E4F0A3F0888289C6
:101AB00083E0FCA3E0FDEC4D700A88828983A3A338
:101AC000E4F0A3F0E50AA2E092AF12385090078C40
:101AD000E004F0EE2463F582EF3400F583E0F8A330
:101AE000E0F9E849603DEE2463F582EF3400F583C8
:101AF000E02402FAA3E03400FBEA2402F50AEB3406
:101B000000F50B780A1214D28A828B83E0FCA3E0E2
:101B1000F9EEFAEFFB122E54740212127EE97003F2
:101B2000021A6990078CE0606390078DE0F89007D7
:101B30008CE0C398500C74026508705090078EE0DA
:101B4000604A8E828F83A3A3A3A3E08518828519A0
:101B500083F0A3E4F090078CE0F874021212B3E86B
:101B6000F0A3E4F090078CE0F890078BE028F07485
:101B7000021212B3AC82AD83851882851983AA82C2
:101B8000AB8379011229E090078CE4F0E509A2E02B
:101B900092AF740412127E0216CDFFFF8521878555
:101BA00022C622C0E0C0D0E8C0E0E9C0E0EAC0E060
:101BB000EBC0E0ECC0E0EDC0E0EEC0E0C008C00962
:101BC000C00AC00BC082C083C0F0A2AFE433FEC223
:101BD000AF759B00906182E0A2E05012E591A2E017
:101BE000500C7591FE740165217003121899E0A2E2
:101BF000E55051E591A2E5504B7591DF90043FE02F
:101C000064076005E064087023740165217035790C
:101C10000190046DE0FA75F005A4CAA8F028FB74E1
:101C20006F2AFA74043BFB121A4F8018E0640D709F
:101C300013900461E004F064287002E4F07A00E09C
:101C4000F91230DC906182E0A2E64003021CEAE572
:101C500091A2E64003021CEA7591BF90043FE06444
:101C6000057008122FAA122FB68003122FB075210B
:101C70000012301CE9900440F07900122FFE122D62
:101C8000167A017B0090043EE0F91234F690780356
:101C9000E064427055900817E014F0704DC2AF1226
:101CA0001CA200782AD0E0F618D0E0F6E59F540791
:101CB00070057509FF800375097FC4C0E07829E6C7
:101CC000F50808E65509F509740B7808121246D094
:101CD000E02508F8906270E0A2E740F8E8C333908E
:101CE0006272F0906270E0D2E0F0906181E0A2E375
:101CF0005009E5E9A2E3500375E9F7A3E0A2E75034
:101D000009E591A2E7500375917FEEA2E092AFD072
:101D1000F0D083D082D00BD00AD009D008D0E0FE1A
:101D2000D0E0FDD0E0FCD0E0FBD0E0FAD0E0F9D08C
:101D3000E0F8D0D0D0E032C0E0C0D0C082C0839004
:101D40006183E0A2E05009E5BFA2E0500375BFFE49
:101D5000E0A2E15009E5BFA2E1500375BFFDE0A29A
:101D6000E25009E5BFA2E2500375BFFBE0A2E350D9
:101D700009E5BFA2E3500375BFF7E0A2E45009E50F
:101D8000BFA2E4500375BFEFE0A2E55009E5BFA292
:101D9000E5500375BFDFE0A2E65009E5BFA2E650BB
:101DA0000375BFBFD083D0828088C0E0C0D0E8C0B8
:101DB000E0E9C0E0EAC0E0EBC0E0ECC0E0EDC0E08C
:101DC000C0F0E5A7A2E6500FE5A1A2E6500953A78F
:101DD000BF75A1BF121E0FE5A7A2E5500CE5A1A299
:101DE000E5500653A7DF75A1DFE5A7A2E15009E59D
:101DF000A1A2E1500375A1FDE5A7A2E2500CE5A167
:101E0000A2E2500653A7FB75A1FBD0F0021D20747F
:101E1000F812132B75210190043FE064067015122F
:101E20002F3E8A828B83A3A3A3A3A3A3E0FAA3E0FC
:101E3000FB122F98A2AFE433FED2AF900445E064CA
:101E40000170187A207B0090043EE0F91235807A08
:101E5000207B0090043EE0F91234FC906182E0D2D5
:101E6000E6F0900814E0602185C6228016900444B4
:101E7000E064017008E5C654F84405F5C653BEFC9D
:101E8000121B9C7401652160E4EEA2E092AF7F0119
:101E90000213D7FF8E238F248582288583278518F8
:101EA00082851983E0CEA3E0CF852882852783EB46
:101EB000C9EAC8EDCBECCA75F010C3E833C8E93302
:101EC000C9EA33CAEB33CBC3EA9EF526EB9FF5256F
:101ED000B35004AB25AA26EC33CCED33CDD5F0DAE4
:101EE000AE23AF242274ED12132B8A088B098C0ABF
:101EF0008D0B74131212B3780C1211387808790C08
:101F0000120A747510017511C8751200751300500E
:101F1000127808790C1210B178107908120A7450EE
:101F2000168010780C79081210B17810790C120A0A
:101F30007440047901800279007F0C0213D774ED9C
:101F400012132B8A088B098C0A8D0B74131212B38F
:101F5000780C121138780C7908120A74401178083C
:101F6000790C1210B1AA08AB09AC0AAD0B8022752E
:101F700010007511007512007513017810790C129C
:101F800010B178107908121078AA10AB11AC12AD0C
:101F90001380A68A828B837508FF7509FF750AFF77
:101FA000750B0078081210FF7F040213D774F51226
:101FB000132B8C828D8378081211388A828B837858
:101FC000081210C5EA2404F8EB3400F98C828D83E2
:101FD000A3A3A3A3E0FCA3E0FD88828983C3E09CC4
:101FE000F0A3E09DF088828983C3E09420A3E0946D
:101FF0004E40268A828B837508FF7509FF750AFF9C
:10200000750BFF780812109E8A828B83A3A3A3A36B
:10201000E02420F0A3E0344EF0021F9374F5121375
:102020002BE9FE9007A0E0FAA3E0FBEEC333F8E44F
:1020300033F9740728F582748239F583E02AF508AC
:10204000A3E03BF50978081214D27A407B427C0F5A
:102050007D00121E94740212127E8A088B098C0A6B
:102060008D0B74107808121040AA08AB097F040287
:1020700013D774F112132B8A0C8B0D8C0E8D0F74E9
:102080000F1212B3E0FAA3E0FB74111212B3E0F5E1
:1020900008A3E0F50978081214D2EA2401F508EB48
:1020A0003400F509E4F50AF50B780C7908120F3CB9
:1020B000750871750902780C7908120F3CAA0CABEF
:1020C0000DAC0EAD0F121E94740212127E8B09EA33
:1020D000450960047A0180027A00EC2AFCED3400A4
:1020E000FD74131212B3E0F8A3E0F9E8FEE9FFEC87
:1020F000F8EDF97A717B021211DD880889098E8268
:102100008F837808121147ECF8EDF97A717B02128F
:1021100011DD8A088B09740578081212558E828F9A
:1021200083A3A3A3A3E508F0A3E509F07F080213A6
:10213000D7C082C083E9906000F0D083D08222C2F1
:10214000AF02000022C0E074F2121417A2AFE43311
:10215000FED2AFC2C0E5D1A2E4500653D1EF123790
:102160009CEEF8EEA2E092AF7F01021476C0E0741C
:10217000F2121417A2AFE433FED2AFE58AA2E04018
:102180000CE58AA2E14006E58AA2E4500312374238
:10219000758A00758A00758A00C2EBEEF8EEA2E03F
:1021A00092AF7F01021476C0E0C0D0E8C0E0E9C081
:1021B000E0A2AFE433F8D2AFC2C7E8F9E8A2E092F8
:1021C000AFD0E0F9D0E0F8D0D0D0E032C0E0C0D05D
:1021D000E8C0E0E9C0E0C008C009C082C083A2AF87
:1021E000E433F9D2AF901065E0F8901066E06870C3
:1021F0000B539AFB9010677401F08031C2E9901084
:1022000065E0F50874012508901065F07509007403
:10221000E52508F582740F3509F583E0F5C19010C6
:1022200065E0C3948040069010657400F0E9F8E919
:10223000A2E092AFD083D082D009D008D0E0F9D00C
:10224000E0F8D0D0D0E032C0E074F2121417A2AFA0
:10225000E433FED2AFC28F901079E064AA6025E526
:10226000F9C0E0901083E0F87900747928F5827461
:102270001039F583D0E0F0901083E02401F0901045
:10228000837400F0E5F9C0E0901083E0F879007401
:102290007928F582741039F583D0E0F0901083E04E
:1022A0002401F0901083E0C3940A50030223C290EB
:1022B00010837400F07A0078007900801574792812
:1022C000F582741039F583E02AFAE82401F8E9343C
:1022D00000F9C3E89409E99400A2D265D03340DD47
:1022E00074FFC39AF8901079E064AA60030223C2D5
:1022F00090107AE064BB60030223C290107BE0641C
:10230000CC60030223C2901082E06860030223C203
:1023100090107CE0F87900E4C8F990107DE0FA7B39
:1023200000E84AF8E94BF990106BE8F0A3E9F09067
:10233000107EE0F87900E4C8F990107FE0FA7B00A5
:10234000E84AF8E94BF990106DE8F0A3E9F0901035
:1023500080E0F87900E4C8F9901081E0FA7B00E8A9
:102360004AF8E94BF990106FE8F0A3E9F09010718A
:102370007400F0901078E070499010787401F0903B
:10238000106BE0F8A3E0F9901072E8F0A3E9F09088
:10239000106DE0F8A3E0F9901074E8F0A3E9F09074
:1023A000106FE0F8A3E0F9901076E8F0A3E9F07C74
:1023B000727D107A0779531238D4E9F8901071744D
:1023C00001F0EEF8EEA2E092AF7F01021476120A5D
:1023D00035B5DB04120A35CBDB04120A35FADB040F
:1023E000120A3530DC04120A3547DC04120A357E45
:1023F000DC04120A35D1DC04120A35E8DC04120AC6
:1024000035FFDC04120A35E4E904120A35FBE9045D
:10241000120A3549EA04120A35CEF302120A35D2FD
:10242000F402120A35FFF402120A354AF502120AC2
:10243000357FF502120A3581F502120A35A4F5023C
:10244000120A35B3F602120A3577F702120A355D21
:10245000F802120A35E9F802120A35ECF802120AFB
:102460003574F902120A35DBF902120A3577FA02DD
:10247000120A3501FB02120A3550FB02120A355DC1
:10248000FB02120A3560FB02120A35C0FB02120A77
:10249000354FFC02120A3552FC02120A35F8FC02D2
:1024A000120A3508FD02120A3538FD02120A3545B6
:1024B000FD02120A3548FD02120A35C9FD02120A50
:1024C00035B7FE02120A3569FF02120A35EAE30344
:1024D000120A35E2E403120A3516E503120A3598AA
:1024E000E503120A35B8E503120A3500E603120ABD
:1024F0003553E603120A35B7E603120A3544E703FB
:10250000120A35FEE703120A350DEB03120A35985D
:10251000EC03120A35BBEC03120A3542C004120A5E
:1025200035DFC104120A3543C204120A35A2C204BF
:10253000120A35B0C204120A35D9C204120A35BCD7
:10254000AD04120A35E4AD04120A3512AE04120AC3
:102550003549AE04120A35A7AE04120A35F2AE04AC
:10256000120A353DAF04120A357DAF04120A35C395
:10257000AF04120A35F1AF04120A35AEB004120AE4
:1025800035B8B004120A35C5B004120A35F8B004E3
:10259000120A35C4B104120A35D0B104120A35E862
:1025A000B104120A35F2B104120A3570B204120AEB
:1025B0003597E404120A35A5E404120A35BDE40493
:1025C000120A35D5E404120A35EDE404120A350086
:1025D0008003120A35AC8003120A35278103120AE0
:1025E00035488203120A35848203120A352D83038B
:1025F000120A35148403120A35788503120A35CF7E
:102600008503120A35508603120A35408703120AE1
:10261000358D8703120A35138803120A354588035E
:10262000120A35598A03120A359B8A03120A35B9F0
:102630008A03120A355B8B03120A35238C03120AB4
:1026400035308E03120A35EDC304120A3503C40473
:10265000120A3529C404120A3545C504120A354F39
:10266000C504120A3584C604120A357CC704120A4E
:10267000351BDA04120A3552DB04120A35486B00A6
:10268000120A35C16B00120A35D16B00120A35B738
:102690006C00120A35F46C00120A35446D00120AFF
:1026A000354F6D00120A35396E00120A35EF6E0093
:1026B000120A35D67000120A358F7200120A356B75
:1026C0007300120A351F7400120A355C7700120A73
:1026D000350A7800120A35797900120A35F97A003C
:1026E000120A35A07B00120A35E97B00120A352058
:1026F0007C00120A35BD7C00120A35487D00120AA2
:1027000035498E03120A35BA8E03120A35E78E0355
:10271000120A353E8F03120A35E78F03120A35EE8F
:102720009003120A35B89103120A35189303120A5E
:10273000355B9303120A35009403120A352694037D
:10274000120A35349603120A35399603120A353EB9
:102750009803120A358B9803120A35FE9803120A61
:1027600035319903120A35D39903120A357C9A033D
:10277000120A35B49A03120A35B79A03120A35FFC2
:102780009A03120A35419B03120A35989B03120AD9
:102790003548CE04120A355BCE04120A3569CE04E0
:1027A000120A357FCE04120A35C6CE04120A35DA73
:1027B000CF04120A3567D004120A35B2D004120AC7
:1027C00035418E04120A35608E04120A35B88E0423
:1027D000120A35F08E04120A351A8F04120A35DCFB
:1027E0009304120A35719404120A35C59404120A2E
:1027F00035EC9404120A355F9702120A3569970284
:10280000120A350D9802120A35509802120A3564E0
:102810009802120A359C9802120A35E59802120AAB
:10282000350E9902120A35539902120A359C990203
:10283000120A35C49902120A354D9A02120A350657
:102840009B02120A351C9B02120A35589B02120A7F
:1028500035809B02120A35B89B02120A35EB9B02A7
:10286000120A35229C02120A35419C02120A356A6C
:102870009C02120A35E39C02120A35F89C02120AE5
:10288000350D9D02120A35229D02120A35579D020E
:10289000120A35919D02120A35B59D02120A357E43
:1028A0009E02120A35949E02120A35B39E02120A43
:1028B00035C69E02120A35DB9E02120A35F09E02D0
:1028C000120A35669F02120A357A9F02120A35D221
:1028D0009F02120A35E19F02120A353DA002120A38
:1028E0003577A002120A35ACA002120A35D8A00230
:1028F000120A3506A102120A3539A102120A354E12
:10290000A102120A3563A102120A3593A102120A2A
:1029100035DEA102120A353DA202120A357EA2025C
:10292000120A35BAA202120A35E5A202120A355479
:10293000A302120A3591A302120A35BCA302120A9D
:1029400035ECA302120A3517A402120A3541A4027B
:10295000120A3578A402120A35ADA402120A35EA29
:10296000A402120A3514A502120A3544A502120A5D
:10297000356EA502120A3598A502120A35C3A502C2
:10298000120A35ECA502120A3543A602120A358551
:10299000A602120A35B0A602120A3514A702120ABC
:1029A000353EA702120A3569A702120A3594A7021A
:1029B000120A35C4A702120A350DA802120A3537C9
:1029C000A802120A355CA802120A35E3A802120A0C
:1029D0003517DD04120A356ADD04120A35FEB80225
:1029E000120A352CB902120A3587BA02120A356763
:1029F000BB02120A3586BB02120A3503BC02120A58
:102A00003546BC02120A35C1BD02120A3530BE027B
:102A1000120A355BC002120A35DFC202120A359073
:102A2000C302120A3586C402120A3526C502120AEA
:102A30003524C602120A357EC702120A3509C802B9
:102A4000120A357EC802120A35ECDF04120A355527
:102A5000E004120A35A9E004120A35D8E004120A8B
:102A600035F9E004120A3512B804120A357FB804A9
:102A7000120A35C6B804120A35DEB904120A35DA6C
:102A8000BA04120A35BDBB04120A35159504120AA0
:102A900035579504120A35309604120A352A9704E0
:102AA000120A350C9804120A35759804120A3591E9
:102AB0009904120A35FD9904120A35009A04120A83
:102AC00035299A04120A35A39A04120A35489B0440
:102AD000120A355D9B04120A35A39B04120A35BC09
:102AE0009B04120A35BF9B04120A3586C704120ADA
:102AF00035C2C704120A3500C804120A35CAC80410
:102B0000120A3539C904120A3574C904120A35B2D9
:102B1000C904120A35E2C904120A3509CA04120AA4
:102B20003577CA04120A35B9CA04120A3590390039
:102B3000120A35EB3B00120A35FD3E00120A353908
:102B40003F00120A35663F00120A35584000120A4B
:102B500035A34000120A35EE4000120A350041004C
:102B6000120A35404100120A35814100120A35909F
:102B70004100120A35C54100120A35134200120AFB
:102B800035424200120A35BA4200120A35EC4200C0
:102B9000120A35284300120A354B4300120A351D2C
:102BA0004400120A35544400120A35F64400120A51
:102BB000357D4500120A35654600120A35FD48008C
:102BC000120A35694A00120A35DF4A00120A355BDB
:102BD0004B00120A359A4D00120A35DB4D00120ADD
:102BE000357F4F00120A35A04F00120A35E14F0021
:102BF000120A35DA5000120A35E75200120A35A4DB
:102C00005300120A353E5400120A35165A00120AB1
:102C100035665A00120A35D85C00120A35105E007B
:102C2000120A351F6000120A358B6000120A35390E
:102C30006100120A350A6200120A353B6200120A6C
:102C400035656200120A358F6200120A35C46200CF
:102C5000120A35E96200120A35086300120A353596
:102C60006300120A35AD6300120A35256400120AAA
:102C7000356F6400120A35916400120A358B6500C5
:102C8000120A355F6600120A35906600120A35F79F
:102C90006600120A35176700120A35246800120A06
:102CA00035846800120A35676900120A35F6690032
:102CB000120A35216A00120A35666A00120A35AA1C
:102CC0006A00120A35F96A00120A351B6B00120AF3
:102CD0003510D804120A35C5D904120A35B4AA032E
:102CE000120A35B2AB03120A354BB203120A356C25
:102CF000B403120A3537B603120A359FB703120A16
:102D000035D98201120A35888301120A35B583014B
:102D1000120A35FB8301120A350D8401120A35436C
:102D20008501120A35A18501120A35C68501120AEC
:102D300035FD8501120A35938701120A350D880188
:102D4000120A355C8801120A35D68801120A35301C
:102D50008A01120A35908B01120A35968C01120AEB
:102D600035F78D01120A35498E01120A35BA8F01E5
:102D7000120A35FF9101120A35F99201120A351231
:102D80009301120A35709301120A358F9301120ACA
:102D900035AE9301120A35B19301120A35E294015E
:102DA000120A35DA9501120A35C69601120A35A8BB
:102DB0009701120A35DB9701120A354B9801120A66
:102DC00035BD9801120A35379901120A358D9901DE
:102DD000120A35689A01120A35329B01120A350728
:102DE0009C01120A35E69C01120A35719D01120AF6
:102DF00035DF9D01120A35539E01120A357E9E0170
:102E0000120A353D9F01120A35919F01120A357E43
:102E1000A201120A35C7A201120A350AA301120A39
:102E20003583A301120A351BA401120A350CA50132
:102E3000120A3531A501120A3577A501120A35A10A
:102E4000A501120A35E9A501120A3564A601120A84
:102E500035BEA601120A3527A801120A35D5A801E8
:102E6000120A3516A901120A357CE502120A35CA82
:102E7000E502120A35D6E502120A35B4E602120A54
:102E800035E5E602120A3516E702120A3596E70220
:102E9000120A3514E802120A354CE802120A359E6D
:102EA000E802120A35DBE802120A35F8EA02120AD1
:102EB000351EED02120A3509EF02120A35F3F0024F
:102EC000120A35F8FF01120A359CA204120A35E7EE
:102ED000A604120A352BA804120A3528D702120AB2
:102EE00035E0D902120A35E6D902120A35A0DC0211
:102EF000120A356DDF02120A35F8B204120A359C47
:102F0000B304120A356EB404120A3598B404120AD6
:102F100035E6B604120A3546A901120A3590A90110
:102F2000120A3559BA01120A35DEBB01120A3501FF
:102F3000BD01120A3572C301120A356DC401120AAD
:102F400035AAC401120A35CDC401120A350FC501D4
:102F5000120A3518C501120A3522C501120A3510A8
:102F6000C601120A3506C701120A359FC701120AA7
:102F700035EFE801120A35EEEC01120A35F4EC01E6
:102F8000120A352FF401120A3548F901120A3501E7
:102F9000CB04120A35FBCB04120A356FCC04120A9B
:102FA00035ADCC04120A3521CD04120A359ACD0470
:102FB000120A35A3CD04120A35AFCD04120A35C466
:102FC000CD04120A3502CE04120A3518CE04120AB4
:102FD00035E6ED03120A35F3ED03120A350DEE0363
:102FE000120A354CEE03120A358AEE03120A35EF47
:102FF000EE03120A3504EF03120A350FEF03120A2B
:10300000351CEF03120A3533EF03120A3541EF0383
:10301000120A3550EF03120A3565EF03120A357AAA
:10302000EF03120A3585EF03120A3591EF03120AF6
:10303000359EEF03120A35ADEF03120A35B8EF03E0
:10304000120A35DDEF03120A35E2EF03120A357C6E
:10305000F003120A35E2F003120A35F2F003120A05
:103060003507F103120A351CF103120A3536F10354
:10307000120A3551F103120A356EF103120A35793D
:10308000F103120A3535F203120A3521F303120A4D
:10309000353DF303120A3554F303120A355FF30387
:1030A000120A3574F303120A3588F303120A35E95C
:1030B000F303120A35EFF303120A35F5F303120A8C
:1030C00035FBF303120A350FF403120A3536F40305
:1030D000120A3571F403120A358AF403120A35CA4A
:1030E000F403120A35FDF403120A3547CF03120A1E
:1030F0003569CF03120A3549D003120A3520D303AC
:10310000120A354CD403120A3570D503120A35223F
:10311000D603120A35C3D603120A358A9C03120A53
:10312000350E9D03120A35BD9D03120A351C9F03FF
:10313000120A353DA103120A3529A203120A355E8F
:10314000A203120A3580A203120A352FA303120A22
:103150003527A503120A3550A503120A35E2A50347
:10316000120A3514A603120A3521A603120A35786D
:10317000A603120A359EA603120A350BA903120AEA
:10318000350EAA03120A3566AA03120A35BCC80214
:10319000120A35C6C902120A35ADCA02120A35B77B
:1031A000CA02120A35D9CA02120A35E5CA02120A3F
:1031B000357ECC02120A35ADCC02120A35C9CD02D9
:1031C000120A3522CE02120A3588CF02120A35675A
:1031D000D002120A35C3D002120A3530D102120AC7
:1031E000356BD102120A35AAD102120A3563D40214
:1031F000120A357DD402120A3509D502120A351792
:10320000D502120A3570D502120A357ED502120A8D
:1032100035F1D502120A3555D602120A359FD6026B
:10322000120A35FEFD01120A3523FE01120A3595F8
:10323000FE01120A357AF503120A3583F503120AE4
:10324000358CF503120A3563F603120A3514F803B8
:10325000120A354AF803120A3584F803120A35BAFD
:10326000F803120A35F4F803120A3528F903120A92
:103270003554F903120A359DF903120A35D7F903BB
:10328000120A3520FA03120A3578FA03120A35AD0C
:10329000FA03120A3508FB03120A3542FB03120A2D
:1032A0003593FB03120A35C9FB03120A3503FC03ED
:1032B000120A3526FC03120A35C9B703120A35FC77
:1032C000B703120A353FB803120A354AB803120A87
:1032D0003555B803120A3560B803120A35CCBB0362
:1032E000120A359FBC03120A3519BD03120A359024
:1032F000BD03120A359DBD03120A35AABD03120A89
:1033000035B4BD03120A35BEBD03120A35DABD035A
:10331000120A35EABD03120A352CBE03120A3552D1
:10332000BE03120A355CBE03120A3566BE03120ADA
:103330003570BE03120A357DBE03120A3587BE03FF
:10334000120A3591BE03120A359BBE03120A35A537
:10335000BE03120A35EFBE03120A350CBF03120A70
:103360003529BF03120A3539BF03120A3543BF039B
:10337000120A359EBF03120A35ABBF03120A356F1E
:10338000C003120A3579C003120A3583C003120A3A
:10339000358DC003120A35AAC003120A35C7C0030F
:1033A000120A358BC103120A3595C103120A35A2E0
:1033B000C103120A35AFC103120A35D0C103120A84
:1033C00035D9C103120A3500C203120A3527C203D8
:1033D000120A354CC203120A3555C203120A35646B
:1033E000C203120A357CC203120A3585C203120ACF
:1033F0003594C203120A35A3C203120A35ACC203C4
:10340000120A35BBC203120A35CBC203120A35EACF
:10341000C203120A35F7C203120A3504C303120AA3
:103420003514C303120A3521C303120A3531C3030D
:10343000120A3541C303120A3551C303120A3583F8
:10344000C303120A358DC303120A359DC303120A42
:1034500035ADC303120A35BAC303120A35DFC303FD
:10346000120A35ECC303120A35FCC303120A3506EF
:10347000C403120A3513C403120A351DC403120A09
:10348000352DC403120A3537C403120A3541C4036B
:10349000120A3551C403120A35448704120A355200
:1034A0008704120A35948704120A35E38704120A46
:1034B000352B8804120A35858804120A35AB880436
:1034C000120A35B98804120A35178904120A354AD6
:1034D0008904120A355C8904120A356E8904120ABD
:1034E00035F98904120A35928A04120A350F8B04C1
:1034F000120A35488B04120A35D38B04120A352A76
:103500008C04120A35878C04120A35998C04120A2D
:1035100035BF8C04120A35C88C04120A350A8E0491
:10352000120A3575E204120A3541E304120A35C560
:10353000D504120A350AD604120A354AD604120AEC
:1035400035CBD704120A356FFF03120A358AFF0301
:10355000120A359AFF03120A35A4E804120A356EDE
:10356000A804120A358EA804120A357CA904120A8E
:1035700035C5A904120A35E5A904120A352BAA0497
:10358000120A3586AA04120A35C4AA04120A350E94
:10359000AB04120A353FE104120A356FE104120A46
:1035A000359FE104120A35BFE104120A350FE20427
:1035B000120A35E39B04120A35279C04120A35D5FA
:1035C0009C04120A35EA9C04120A355E9D04120A14
:1035D00035B09D04120A35C39D04120A35FF9D04BF
:1035E000120A35999E04120A35139F04120A354BAC
:1035F000A004120A3580A104120A35E9A104120AB6
:103600003555A204120A3547E904120A35EEC901FC
:10361000120A3504CD01120A353FCE01120A354592
:10362000D001120A35F0D001120A3581D101120AF7
:103630003511D201120A353BD201120A3523D701C6
:10364000120A35CED701120A3531D901120A359541
:10365000D901120A3549DA01120A3508DD01120AC8
:103660003547DD01120A35BBDD01120A351ADE01CC
:10367000120A3579DE01120A35E8DE01120A35DB5D
:10368000DF01120A3521E001120A3566E001120A53
:103690003587E001120A3502E201120A3515E2010E
:1036A000120A351CE301120A3549E301120A357288
:1036B000E301120A35B8E301120A35D6E301120A12
:1036C000351AE401120A356CE601120A3513E701D6
:1036D000120A357EE701120A35BBE801120A359954
:1036E000E304120A35B6E304120A3587E404120A29
:1036F00035C6FC03120A3561FF03120A35D9EA0404
:10370000120A356DE604120A357DE604120A359D6B
:10371000E604120A352EE704120A35DCD004120A38
:103720003576D104120A3546D304120A3583DE04F5
:10373000120A35BCDE04120A351FDF04120A353FB7
:10374000DF04120A35A3DF04120A35F6EA04120A6E
:1037500035008004120A35DF8104120A35668204BE
:10376000120A35678304120A352B8404120A35A025
:103770008404120A35828504120A35858504120AEA
:1037800035938504120A35A68504120A35BD8504D1
:10379000120A35D48504120A35E28504120A35F975
:1037A0008504120A35078604120A35208604120A97
:1037B0003561D304120A35C0D404120A350BA902AC
:1037C000120A35ECAA02120A3527AC02120A358C0D
:1037D000AC02120A359FAC02120A3514B102120A69
:1037E000356CB102120A35F4B302120A3533B40251
:1037F000120A3555B402120A357AB402120A359308
:10380000B402120A350DB602120A35A0B602120A27
:1038100035F2B602120A35B9B702120A35ECB70210
:10382000120A3567B802120A35C5B802120A35F114
:10383000E704120A356DE804120A357DE804120A1D
:10384000358DE804120A359DE804120A35257E00FC
:10385000120A35867E00120A35247F00120A358B43
:103860007F00120A357FBC04120A35B1BC04120A6B
:1038700035ADBD04120A35CABE04120A357BBF0439
:10388000120A359DD903120A3583DA03120A35D09C
:10389000DA03120A3513DB03120A3586DB03120A38
:1038A00035E5DB03120A355ADC03120A3536DD032F
:1038B000120A3541DE03120A35C2DE03120A3562EE
:1038C000E003120A35F6E003120A3565E103120A35
:1038D00035DDE103120A35F4E103120A352FE30363
:1038E000120A3581E303120A35008002120A3546B6
:1038F0008102120A354B9002120A35CC9302120A49
:1039000035379502120A35639502120A354F960231
:10391000120A355BC403120A35A3C403120A352701
:10392000C503120A35A1C503120A35E5C503120AFB
:103930003529C603120A353CE704120A3554E70458
:10394000120A356CE704120A3584E704120A359C22
:10395000E704120A35B4E704120A35BBE704120A79
:1039600035D6E704120A3586E504120A35DFE50488
:10397000120A35DAFF02120A355BEA04120A35AD83
:10398000EA04120A35E07F0031B1E1FFFFFFFFFFDB
:1039900074F41212BFE990043EF0122FCE9078001A
:1039A000E0C4540F540764037004793F8002797FA8
:1039B00075080675090078081214D27C2C7D047AEB
:1039C000EA7B07123718740212127E90042CE0F47E
:1039D0007049A3E0F47044A3E0F4703FA3E0F470F6
:1039E0003AA3E0F47035A3E0F4703090780EE090E4
:1039F000042CF090780FE090042DF0907810E09077
:103A0000042EF0907811E090042FF0907812E0905E
:103A10000430F0907813E0900431F090043274FF99
:103A2000F0A3F0A3F0A3F0A3F0A3F090042CE09097
:103A30000438F090042DE0900439F090042EE090CA
:103A4000043AF090042FE090043BF0900430E090B2
:103A5000043CF0900431E090043DF090045C740666
:103A6000F0A3740DF0A3E4F0A37440F0A37401F08C
:103A700090079474FFF0A3F0A3F0A3F0A3F0A3F0D9
:103A8000900793E4F090079AF0A374A0F0A3E4F0F9
:103A9000A37403F0A37407F0A3E4F0A37428F0A3C5
:103AA000E4F0A304F0A3E4F09007C3F09007E974F6
:103AB000FFF0A3F0A3F0A3F0A3F0A3F09007E8E4D5
:103AC000F09007EF04F0A3E4F0A3F0A37480F0A358
:103AD0007402F0A37480F0A37402F0A3E4F0A304D2
:103AE000F0A3F0A3E4F0A37425F0A3E4F0A3F09016
:103AF000080074FFF0A3F0A3F0A3F0A3F0A3F090EC
:103B000007FFE4F090080604F0A3E4F0A37480F04B
:103B1000A37402F0A37480F0A37402F0A37425F0E0
:103B2000A3E4F0A3F0A37405F090081074FFF0A3D1
:103B3000E4F0900812F090081404F09008157490C6
:103B4000F0A37401F0122D2E122B42122F8C79014A
:103B50007A177B08122E72900817E075F01484E52E
:103B6000F004F0790C7A387B08122E72122E907ABB
:103B70000090043EE0F9123550907803E064427002
:103B800055900817E014F0704DC2AF123B8E0078CC
:103B90002AD0E0F618D0E0F6E59F540770057509C5
:103BA000FF800375097FC4C0E07829E6F50808E6C0
:103BB0005509F509740B7808121246D0E02508F86B
:103BC000906270E0A2E740F8E8C333906272F09030
:103BD0006270E0D2E0F0900469E4F0A3F07A80FB38
:103BE00090043EE0F91234F602420E74F41212BF51
:103BF000EAFEEBFFEEA2E05045900440E0C3948063
:103C0000E0500FC333F8E433F9749728F582741346
:103C1000800EF4C333F8E433F974A528F5827413E5
:103C200039F583E0F8A3E0F58388821212BD7A00AB
:103C300090043EE0F9123550EE6401023EF1540862
:103C40007003023CD890080EE0F875F005A4C8AAED
:103C5000F02AF9746F28FA740439FB7508007808A3
:103C60001214D6EA2432F582EB3400F583E0F5082D
:103C7000A3E0F5097404780812124678081214D2E9
:103C8000EA2430F582EB3400F5831214E9EA242E9D
:103C9000F582EB3400F583E0F508A3E0C313F509E2
:103CA000E50813F50878081214D275087F7509071E
:103CB00078081214D290077EE0FD7C008A828B8304
:103CC000A3A3A3A3E0FA7B007900122A10740912BF
:103CD000127EEE6408023EF1EE541060407508005A
:103CE00078081214D6E4F50978081214D27808126C
:103CF00014D278081214D275087F75090778081253
:103D000014D290077EE0FD7C007A007B00790212DD
:103D10002A10740912127EEE6410023EF1EE540273
:103D2000604075080078081214D6E4F50978081286
:103D300014D278081214D278081214D275087F753C
:103D4000090778081214D290077EE0FD7C017A0002
:103D50007B00793C122A10740912127EEE64020272
:103D60003EF1EE54047003023E0790046DE0F875D6
:103D7000F005A4C8AAF02AF9746F28FA740439FB74
:103D8000EA242AF582EB3400F583E0F5087808127E
:103D900014D6EA2432F582EB3400F583E0F508A36B
:103DA000E0F5097404780812124678081214D2EA71
:103DB0002420F582EB3400F5831214E9EA242EF571
:103DC00082EB3400F583E0F508A3E0C313F509E5C1
:103DD0000813F50878081214D275087F750907785A
:103DE000081214D290077EE0FD7C018A828B83A3A7
:103DF000A3A3A3E0FA7B007900122A10740912121F
:103E00007EEE6404023EF1EE544060407508007896
:103E1000081214D6E4F50978081214D2780812149E
:103E2000D278081214D275087F7509077808121421
:103E3000D290077EE0FD7C017A007B00793B122A5C
:103E400010740912127EEE6440023EF1EE5480605E
:103E50003B900815E0F8A3E0F9E849602A790012E0
:103E6000354A900815E0F508A3E0F509E4F50AF5F0
:103E70000B78081214CE7A007B0190043EE0F91210
:103E80003574740412127EEE64808065EF54016014
:103E90000C790112354AEEFAEF64018056EF5402B4
:103EA000600AC2AF75C9AB75C95B80FEEF54046090
:103EB0000A12213FEEFAEF64048038900445E06472
:103EC000017033EE5420602E90043FE024F960032B
:103ED00014701B793F90046DE0FA75F005A4CAA830
:103EE000F028FB746F2AFA74043BFB122E2AEE644E
:103EF00020FAEFFB80047A007B0002420E74F61277
:103F000012BFC3EA9411EB940050047A1080027A35
:103F100020EA2408FAE43400FB12384A8A088B09A4
:103F2000A808A909E849600AE82404FAE93400FB72
:103F300080047A007B00024B5674F61212BFEA240A
:103F400005FAEB3400FB12384A8A088B09A808A945
:103F500009E849600AE82405FAE93400FB80047A9C
:103F6000007B00024B56C082C083C2AF122FB0E567
:103F7000E170FC75E101122D0A75E1F1122FDA12E0
:103F80002CFE7907123094790112309A790212309E
:103F90000412303A123076790012308879011230EA
:103FA000887A557B557C557D00122FEC90077EE476
:103FB000F0A3F0A3F0A3F0A3F0A3F0A3F090079A6E
:103FC000F0A3F0A3F090079E7407F090079D740390
:103FD000F09007A3E4F09007A2F09007C3F09007D9
:103FE000F0F0900807F0122E12122F14122E3679CC
:103FF000001230A090078574FFF0A3F0A3F0A3F0A7
:10400000A3741FF0906012E4F0A3F0906063F07569
:10401000210090043FF090078AF090078B740CF019
:1040200090078CE4F090078D04F090078EE4F090F8
:10403000078F04F0900790E4F0900441F0A3F09013
:104040000444F090044504F090045B04F0900813DD
:10405000E4F0D2AFF9026234C082C08390042CE055
:104060008A828B83F090042DE08A828B83A3F09068
:10407000042EE08A828B83A3A3F090042FE08A822F
:104080008B83A3A3A3F0900430E08A828B83A3A345
:10409000A3A3F0900431E08A828B83A3A3A3A3A3FC
:1040A000026231C082C0838A828B83E0900432F046
:1040B0008A828B83A3E0900433F08A828B83A3A34C
:1040C000E0900434F08A828B83A3A3A3E0900435AC
:1040D000F08A828B83A3A3A3A3E0900436F08A82A4
:1040E0008B83A3A3A3A3A3E0900437026231C08211
:1040F000C083122D3AE9700512303A790002623419
:1041000074F71212BFEAFEEBFF8908122D3AE9702C
:104110002CE508600A74016508600A7912801E7C2B
:1041200000790080047C007901EEFAEFFB12304642
:10413000E9F87403687004790780027900024ADAAA
:1041400074F71212BFEAFEEBFF8908122D3AE970EC
:104150002DE508600A7401650860087912801F79EE
:104160000080027901EEFAEFFB12304CE9F874049A
:104170006860057405687004791F80027900024A3E
:10418000DA74F71212BFEAFEEBFF123040024AD295
:1041900074F61212BFEA4B6016EC4D6012740A12EC
:1041A00012B3E0F508A3E0F509E5084509700479C4
:1041B00012800F78081214D2122E84740212127E0A
:1041C0007900024B5674F41212BFEAFEEBFF890825
:1041D00090043FE064096014E0640A600FE0640B3F
:1041E000600AE0640C6005E0640D7004790C801EC8
:1041F000122F3E8B0BEA450B700BA908EEFAEFFB72
:10420000122E728009900441E04440F0790D7F0441
:1042100002139174F61212BFEA4B6003E97004793D
:1042200012801CEAFEEBFF8908122E6CE98E828F49
:1042300083F0A3AE82AF831508E50870EC79000225
:104240004B5674F71212BF8A828B83E04433F0A37B
:10425000A882A983E04433F08A828B83E0D2E6F01F
:10426000EA2403FCEB3400FD8C828D83E0D2E4F081
:10427000EA2402FEEB3400FF8E828F83E044C0F01C
:104280008C828D83E04403F08E828F83E0440FF0B4
:104290008A828B83E0448CF08C828D83E0D2E5F0BF
:1042A00088828983E044CCF08C828D83E044CCF01A
:1042B0008E828F83E04430024AD7C082C083785216
:1042C000790488828983A3E08A828B83F08882893B
:1042D00083A3A882A9838A828B83A3AA82AB83E863
:1042E000645A7003E9640470D902623274F71212DE
:1042F000BF74091212B3E0F8A3E0F990045CE08AFD
:10430000828B83F090045DE0FAA3E0FB8C828D83C6
:10431000EAF0A3EBF090045FE0FAA3E0FB88828967
:1043200083EAF0A3EB024AD7C082C083E9F87401A4
:1043300068700B9008137401F07900026234E87021
:1043400006900813E480F1791280F074F71212BF1E
:10435000C3EB940F5056C3EA9403EB9400504DEA1C
:10436000F8EBF9E875F005A4C8ACF02CFC75F00585
:10437000E9A42CF9747228F582740439F583E0609D
:1043800027EAF8EBF9E875F005A4C8ACF02CFC7549
:10439000F005E9A42CF9746F28FE740439FF8E82AD
:1043A0008F83A3A3A3E0700879028045791280412E
:1043B000EE24ECF582EF3400F583E064017035EE15
:1043C00024F2F582EF3400F5831214E9EE24F0F5BF
:1043D00082EF3400F5831214E9EE24EFF582EF3416
:1043E00000F583E0FC7900122A28740412127E7909
:1043F00000024ADAEE24EDF582EF3400F583E07036
:1044000018790CEEFAEFFB122DE8EE24EDF582EFB1
:104410003400F5837401F080D6793A80D474F712B1
:1044200012BFECFEEDFFEE4F6026EA60051460154A
:10443000801E122D28E9F88E828F83F074806870B8
:104440000A793080088E828F83E4F07900024ADA9C
:10445000791280F9C082C083E9FD8D82A882C3E40D
:10446000940F40030244F1E8C3940340030244F173
:10447000E875F005A4C8ACF02CF9747228F58274C4
:104480000439F583E0700479028068746F28F87449
:104490000439F9E8245DF582E93400F583E08A8285
:1044A0008B83F0E8245EF582E93400F583E08A82AC
:1044B0008B83A3F0E8245FF582E93400F583E08A7A
:1044C000828B83A3A3F0E82460F582E93400F583AE
:1044D000E08A828B83A3A3A3F0E82461F582E93408
:1044E00000F583E08A828B83A3A3A3A3F0790080E5
:1044F00002791202623474F71212BF90043FE06432
:104500000C701290618EE0F9748069705E8C828DFF
:1045100083747F8062C3EB940F504CC3EA9403EB27
:1045200094005043EAF8EBF9E875F005A4C8AEF042
:104530002EFE75F005E9A42EF9747228F582740434
:1045400039F583E0700479028030EA75F005A4CA79
:10455000A8F028F875F005EBA428FB74D72AF5829B
:1045600074043BF583809F7912800F900443E0F838
:10457000E9C3988C828D83F07900024ADA74F712CD
:1045800012BFE9FE74056E602374136E601E74140E
:104590006E601974156E6014741A6E600F74296E53
:1045A000600A743B6E60057912024662C3EB940F99
:1045B000506AC3EA9403EB94005061EAF8EBF9E81F
:1045C00075F005A4C8ACF02CFC75F005E9A42CF935
:1045D000747228F582740439F583E07004790280DE
:1045E0003DEA75F005A4CAA8F028F875F005EBA41B
:1045F00028FB746F2AFA74043BFBEA2469F582EB0A
:104600003400F583E064017038EA246AF582EB3403
:1046100000F583E064027008793A8046791280429E
:10462000EA24F6F582EB3400F583EEF0EA241DF57A
:1046300082EB3400F583E4F0A3F07902122DF480CC
:104640001FEA24F6F582EB3400F583EEF0EA241D30
:10465000F582EB3400F583E4F0A3F07902122DE843
:104660007900024ADA74E81212BF8A088B098917A6
:10467000EC4D6014E9C3941C500E74181212B3E090
:10468000FB600A74016B600579120248F8C3E50902
:10469000940F5042C3EA9403E50994005038A808E7
:1046A000E875F005A4C8AAF02AFA75F005E509A492
:1046B0002AF9747228F582740439F583E07004795C
:1046C000028015746F28FE740439FF90078BE07028
:1046D0000A79070248F879120248F8EC24FEFCED4A
:1046E00034FFFD8C828D83E517F0EB70047402803B
:1046F000027401A3F0EC24FEFCED34FFFDEE246314
:10470000FAEF3400FB122E5A90078BE014F090045D
:104710003FE064086008E0640760030248F6900424
:104720006DE065087002E50960030248F67900EE65
:10473000FAEFFB121A4F9061D0E070030248F69036
:10474000078FE0640160030248F6EE241DF582EF56
:104750003400F583E0F8A3E0F9E84970030248F675
:10476000A2AFE433F516C2AF122F3E8A148B151296
:104770002FC28A0C8B0D8C0E8D0F8A088B098C0A28
:104780008D0B7510017511007512007513007808F6
:10479000791012107878081214CE8514828515834A
:1047A000A3A3121156121EE5740412127EE96401CD
:1047B00060030248F0EE242EF582EF3400F583E02A
:1047C0002406F508A3E03400F509E4F50AF50B78B2
:1047D0000C7908121078780C1214CE851482851585
:1047E00083A3A3121156121EE5740412127EE9640B
:1047F0000160030248F0E5142408F510E5153400C3
:10480000F511851082F5831214E5AA0CAB0DAC0EE0
:10481000AD0F121F3E740412127EEE242EF508EF27
:104820003400F509850882F5831214E9121E947488
:104830000212127E8A0C8B0D8C0E8D0F7410780C68
:104840001210408E828F83A3A3A3A3A3A3A3A3A329
:10485000E0F8A3E0F98E828F83A3A3A3A3A3E8F0DB
:10486000A3E9F0E8250CF8E9350DF98E828F83A3D2
:10487000A3A3A3A3A3A3E8F0A3E9F0851082851165
:1048800083C082C083850882850983E0F508A3E0A0
:10489000F509780C7908120F3CD083D082780C127D
:1048A000108B7508FF7509FF750AFF780C790812DF
:1048B00010D9851482851583A3A3E50CF0A3E50D1B
:1048C000F0A3E50EF0A3E4F0EE2435F582EF34001A
:1048D000F583E0C0E0EE2434F582EF3400F583D0B8
:1048E000E0F0EEFAEFFB1216D2AA14AB15122F204D
:1048F000E516A2E092AF79007F1002139174F512D1
:1049000012BFE9FE8A098B0AC394284003024A6554
:10491000EAC394264003024A65EB602D7401650AE0
:1049200060277402650A60217403650A601B7404C1
:10493000650A60157405650A600F7406650A6009EA
:104940007407650A6003024A6590043FE0600579D8
:1049500021024A02122FB0122D1075E1F17A01796D
:10496000011230C47A297B417C767D7112302E7A17
:1049700000EEF91230DC79001230A690045BE0F909
:10498000122D2274022509F5D9850AD98509D9E5A0
:104990000A602414606F14607D14602E147003028A
:1049A0004A24147003024A32147003024A401470FD
:1049B00003024A51024A65E509600F7582917583C9
:1049C00081FFE0F5D9A31FEF70F875E195EE900433
:1049D00061F0E509A3F0E50AA3F0A3E4F0A3F0A3D6
:1049E000F0A3F0A37480F090043F7409F09061820A
:1049F000E0D2E5F0791912308E7A007B00122F9800
:104A00007900025E0BE50960C1F50875D90F15083C
:104A1000E50860B680F5E50960B0FD75D9551DED76
:104A200060A880F7E50960A2FC75D9FF1CEC609ACC
:104A300080F7E5096094FB75D9001BEB608C80F76B
:104A4000E5096086FA75D9F01AEA70030249CA804E
:104A5000F4E50970030249CAF875D9AA18E8700389
:104A60000249CA80F47912809974F71212BFE9FEE4
:104A7000C3942840047912805790043FE060047981
:104A800021804D122FB0122D1075E1F17A017900BD
:104A90001230CA7A297B417C767D7112302E7A00E1
:104AA000EEF91230DC79001230A6EE900461F0A32A
:104AB000E4F0A374FFF0A3E4F0A3F0A3F0A3F0A349
:104AC0007480F090043F740AF0791812308E7900E7
:104AD0008008E98E828F83F079007F010213917440
:104AE000F61212BF90043FE064096009E0640A60B6
:104AF0000479218061E5E170FC75E101E0640970F1
:104B0000147A647B041230D079051230A679007AC9
:104B1000007B00802FE0640A702D75086875090419
:104B200078081214D27C667D047A647B041230D635
:104B3000740212127E79051230A67901900464E0A5
:104B4000FAA3E0FB122A40122D0A122CFE75E1F1A5
:104B500090043FE4F0F97F0202139174F61212BF41
:104B6000EAFEEBFF8908740B1212B3E0F509740C2E
:104B70001212B3E0F8A3E0F9E508605F740165087C
:104B8000601574036508602F740265086029740459
:104B900065086003024C36E8497003024C36E509AB
:104BA0006009740165096003024C3674036508608E
:104BB00006740265087046EE2460FAEF34FFFBC30A
:104BC000EA9461EB943F506EEC2460FAED34FFFB05
:104BD000C3EA9461EB943F4024805BEE24E0FAEF5B
:104BE00034FFFBC3EA94E1EB943F504AEC24E0FA33
:104BF000ED34FFFBC3EA94E1EB943F5039C3EC9EE4
:104C0000ED9F4032740A1212B3E0FA600574016A33
:104C10007024740F1212B3E0FC600F74016C600A10
:104C200074026C600574036C700C740E1212B3E0A5
:104C3000FB74075B70057912024D9790079AE06448
:104C4000017005790C024D97E50890079DF07407F7
:104C50005BA3F0ECA3F0EA900793702FE4F09004CC
:104C60002CE0900794F090042DE0900795F09004CC
:104C70002EE0900796F090042FE0900797F09004B4
:104C800030E0900798F0900431802E7401F0900489
:104C900032E0900794F0900433E0900795F0900490
:104CA00034E0900796F0900435E0900797F0900478
:104CB00036E0900798F0900437E0900799F074017F
:104CC00065087053E50990077EF088828983E0903B
:104CD000077FF088828983A3E0900780F08882892B
:104CE00083A3A3E0900781F088828983A3A3A3E034
:104CF000900782F088828983A3A3A3A3E09007830F
:104D0000F088828983A3A3A3A3A3E0900784F090F3
:104D1000079BE4F0A3807D74046508704DE509905D
:104D2000077EF088828983E090077FF088828983FC
:104D3000A3E0900780F088828983A3A3E090078195
:104D4000F088828983A3A3A3E0900782F0888289F8
:104D500083A3A3A3A3E0900783F088828983A3A3FE
:104D6000A3A3A3E0900784F08023EC700479008073
:104D70001974016C70047901801074026C700479EC
:104D800002800774036C7005790312305290079B00
:104D9000EEF0A3EFF07900024B5674F61212BFE961
:104DA000FEC39420500BEE9007A3F06023EA4B70F3
:104DB0000479128023E0F50875090078081214D2EE
:104DC000EAFCEBFD7AA47B0712349C740212127E7B
:104DD0009007A27401F07900024B5674F01212BFD2
:104DE000E9FE90043FE064097003024F04E0640AA6
:104DF0007003024F04E0640B7003024F04E0640C84
:104E00007003024F04E0640D7003024F0490079D8D
:104E1000E0601664016012E06403600DE06402600B
:104E200008E064046003024F76900793E060076433
:104E3000016003024F7690079DE064036005E06423
:104E400002701090079BC3E094A0A3E0940050036D
:104E5000024F76EE7003024F0F146003024F7690FC
:104E6000079AE064017003024F0490079DE0600917
:104E700064016005E06404700B122F4AE954FD6080
:104E800003024F047901122F32900791EAF0A3EB4D
:104E9000F090079A7401F090043FE0706E122FC2F8
:104EA0008A088B098C0A8D0B750C03750D00750E25
:104EB00000750F007808790C121078750CFF750DCD
:104EC000FF750EFF7808790C1210D9900791E0F861
:104ED000A3E0F5838882A3A3780812114790079175
:104EE000E0F8A3E0C82406F582E83400F583E4F096
:104EF000A3F0122D40E960107A917B07122F3890B1
:104F0000079AE4F079218005122F1A7900806B90BE
:104F1000079AE060EFA2AFE433FFC2AF7A917B075C
:104F2000122F3890079AE4F0122F50E97041122F97
:104F3000B0906182E0C2E6F0E5E170FC75E10175D8
:104F400091BF75E1F1900445E0640170187A207B0F
:104F50000090043EE0F91235807A207B0090043EF8
:104F6000E0F91234FC7A0090043EE0F9123550EF7B
:104F7000A2E092AF8095791280937F08021391741A
:104F8000F71212BFEAFEEBFF122D28E9F88E828F8E
:104F900083F07480687004793080027900024ADA04
:104FA00074F61212BFE9FEC39420500BEE9007C3B3
:104FB000F06023EA4B700479128023E0F50875094C
:104FC0000078081214D2EAFCEBFD7AC47B07123495
:104FD0009C740212127E9007A27401F07900024BB9
:104FE0005674F71212BFE9FE600574016E704574C5
:104FF000091212B3E0FF600574016F7037EA24FCF8
:10500000F8EB34FFF9C3E894FDE9943F5026EC2413
:10501000FCF8ED34FFF9C3E894FDE9943F5015C363
:10502000EA9CEB9D400E740A1212B3E0F8600A7419
:105030000168600579120250D79007F0E0640170B2
:1050400005790C0250D7EEA3F0E89007F6F0EF9048
:1050500007E8702FE4F090042CE09007E9F090044A
:105060002DE09007EAF090042EE09007EBF090041A
:105070002FE09007ECF0900430E09007EDF0900402
:1050800031802E7401F0900432E09007E9F0900432
:1050900033E09007EAF0900434E09007EBF09004DE
:1050A00035E09007ECF0900436E09007EDF09004C6
:1050B00037E09007EEF09007F2EAF0A3EBF0A3ECF4
:1050C000F0A3EDF0E87004790080077401687005C2
:1050D00079011230587900024ADA74F01212BFE9ED
:1050E000FEEAFF90043FE06409700302524AE06464
:1050F0000A700302524AE0640B700302524AE064F1
:105100000C700302524AE0640D700302524A900789
:10511000F1E06007640160030252E29007E8E0609A
:1051200007640160030252E29007F2E024FCF8A356
:10513000E034FFF9C3E894FDE9943F40030252E2F2
:10514000A3E024FCF8A3E034FFF9C3E894FDE9945C
:105150003F40030252E29007F2C0829007F4E0F869
:10516000A3E0F9758307D082C3E098A3E0995003C8
:105170000252E2EF600874016F60030252E2EE70C7
:10518000030252441460030252E29007F0E064010B
:10519000700302524A7902122F329007E6EAF0A316
:1051A000EBF09007F07401F09007EFF0EF9007F745
:1051B000F090043FE0600302523F122D64122FC2B0
:1051C0008A0C8B0D8C0E8D0F750810750900750AF1
:1051D00000750B00780C79081210787508FF7509B6
:1051E000FF750AFF780C79081210D99007E6E0F8ED
:1051F000A3E0F5838882A3A3780C1211479007E6F9
:10520000E0F8A3E0C82406F582E83400F583E4F072
:10521000A3F09007F4E0F508A3E0F509E4F50A78B7
:105220000C79081210789007E6E0F8A3E0C8240E85
:10523000F582E83400F583780C121147122F1A79A1
:1052400000024F7A9007F0E07004792180F3A2AF5A
:10525000E433F508C2AF7AE67B07122F389007F0E7
:10526000E4F0122F50E97046122FB0906182E0C234
:10527000E6F0E5E170FC75E1017591BF790112304E
:105280009A75E1F1900445E0640170187A207B0082
:1052900090043EE0F91235807A207B0090043EE0D5
:1052A000F91234FC7A0090043EE0F9123550E5081A
:1052B000A2E092AF9007F6E0640170061230760229
:1052C000523FA3E06401600302523F9007F6E060A2
:1052D0000302523F12303A123076790112308202C4
:1052E000523F791202524174F71212BF90043FE00C
:1052F00064076005790C02539DEC4D70030253A0C6
:10530000C3EB940F40030253A0C3EA9403EB940051
:1053100040030253A0EAF8EBF9E875F005A4C8AE23
:10532000F02EFE75F005E9A42EF9747228F582744A
:105330000439F583E0700479028062EA75F005A40F
:10534000CAA8F028F875F005EBA428FB746F2AFAB8
:1053500074043BFB7E008C828D83E0C0E0EEF8C3DA
:10536000E498F895E0F9EA28F8EB39F9E824D1F562
:1053700082E93400F583D0E0F00E8C828D83A3ACFB
:1053800082AD83EEC3941040CDEA24D3F582EB3492
:1053900000F5837401F07905122DE87900024ADAEC
:1053A000791280F9C082C08390043FE064076005F1
:1053B000790C02543BC3EB940F5068C3EA9403EB9F
:1053C0009400505FEAF8EBF9E875F005A4C8ACF07A
:1053D0002CFC75F005E9A42CF9747228F58274048C
:1053E00039F583E0700479028051EA75F005A4CAAA
:1053F000A8F028F875F005EBA428FB746F2AFA745E
:10540000043BFBEA24DCF582EB3400F583E0640125
:105410007015EA24F6F582EB3400F5837406F07912
:1054200002801379128014EA24DDF582EB3400F552
:10543000837406F0790D122DE8790002623474E865
:105440001212BF74FB12126874031212B3EAF0A3B3
:10545000EBF074011212B3ECF0A3EDF0E9851882C1
:10546000851983F074291212B3E0FEA3E0FF742BB8
:105470001212B3E0F508A3E0F509900807E0640113
:10548000700302562B7904122F44E9640170030261
:10549000562B90043FE06409700302562BE0640A27
:1054A000700302562BE0640B700302562BE0640C71
:1054B000700302562BE0640D700302562B74031226
:1054C00012B3E024FCF8A3E034FFF9C3E894FDE94B
:1054D000943F40030257B174011212B3E024FCF868
:1054E000A3E034FFF9C3E894FDE9943F4003025779
:1054F000B174031212B3C082C08374011212B3E0FC
:10550000F8A3E0F9D083D082C3E098A3E0995003D8
:105510000257B1741E1212B3E0F50AA3E0F50B8531
:105520001882851983E06009640160030257B18025
:1055300009E50A450B70030257B1741D1212B3E05E
:105540006007640160030257B174201212B3E06077
:1055500007640160030257B1C3E5089EE5099F5047
:10556000030257B174211212B3E0FAA3E0FBEA245C
:10557000FAF8EB34FFF9C3E8947BE9940C4003029A
:1055800057B174231212B3E0F8A3E0F97423121296
:10559000B3E8F0A3E9F074231212B3E024FAF8A3FD
:1055A000E034FFF9C3E8947BE9940C40030257B15F
:1055B00074231212B3C3E09AA3E09B50030257B1C5
:1055C00074251212B3E0F8A3E0F974251212B3E8BF
:1055D000F0A3E9F074251212B3C3E094F4A3E094AD
:1055E0000140030257B174271212B3E0F508A3E09B
:1055F000F509E50824F6F8E50934FFF9C3E89477DE
:10560000E9940C40030257B17901122F44E9640177
:10561000700F90079DE060136401600FE064046008
:105620000A7940122F44E9640170057921025A0E6B
:1056300085080C85090D7403780C121255F50EF5CA
:105640000F74251212B3E02401F514A3E03400F521
:1056500015E4F516F51774231212B3E0F8A3E0F978
:10566000E8C333F8E933F988108911E4F512F5132A
:1056700078147910120F3C780C7914120A7450695E
:10568000122E30E964017005793A025A0E90046CCA
:10569000E0604774231212B3E0FEA3E0FFEEC333D1
:1056A000FEEF33FF7AFF7BFF122E1E8A0C8B0D74E8
:1056B00003780C12124690046CE0F8C3E50C98E5F0
:1056C0000D94004039C3EA9EEB9F5020EEF8EFF9AD
:1056D0001211DD8B0DEA450D702485188285198322
:1056E000E07020E50A450B701A0257B1EAF8EBF9B1
:1056F000EEFAEFFB1211DD8B0DEA450D60DC793B14
:10570000025A0E122E068A0C8B0DAE0CAF0DEE4F08
:1057100070057909025A0E8E828F83A3A3A3A3E09A
:1057200090080EF074031212B3E0F8A3E0F99008A9
:1057300008E8F0A3E9F074011212B3E0F8A3E0F96D
:1057400090080AE8F0A3E9F0851882851983E090B3
:10575000080DF0EEF8EFF97A857B078A828B83E0FB
:10576000C0E0E8245DF582E93400F583D0E0F08AFA
:10577000828B83A3AA82AB8388828983A3A882A910
:1057800083EA648A7003EB640770D0EE245DFCEF5B
:105790003400FDEEFAEFFB122DFAEE2436F582EF1F
:1057A0003400F583E0C39402500CEEFAEFFB122EA6
:1057B0000C7912025A0E850A82850B83E090077FCE
:1057C000F0850A82850B83A3E0900780F0850A822A
:1057D000850B83A3A3E0900781F0850A82850B8364
:1057E000A3A3A3E0900782F0850A82850B83A3A37D
:1057F000A3A3E0900783F0850A82850B83A3A3A36C
:10580000A3A3E0900784F074201212B3E09007FF86
:10581000F074201212B3E0702D90042CE090080078
:10582000F090042DE0900801F090042EE090080222
:10583000F090042FE0900803F0900430E09008040A
:10584000F0900431802B900432E0900800F0900436
:1058500033E0900801F0900434E0900802F09004E6
:1058600035E0900803F0900436E0900804F09004CE
:1058700037E0900805F0741D1212B3E090077EF037
:10588000122E3CEE2426F582EF3400F583121162CD
:10589000122CD4EE2422F582EF3400F5831211622B
:1058A00074231212B3E0F8A3E0F9EE242EF582EF90
:1058B0003400F583E8F0A3E9F0EE2432F582EF340A
:1058C00000F583E508F0A3E509F074251212B3E0B2
:1058D000F8A3E0F9EE2430F582EF3400F583E8F028
:1058E000A3E9F090080FE0C0E0EE242AF582EF343F
:1058F00000F583D0E0F0EE242BF582EF3400F58341
:105900007402F0122E6CE975F00C84E5F02405C0E9
:10591000E0EE2437F582EF3400F583D0E0F0900814
:105920000C7425F090046CE0C394024005790112D8
:105930002FFE7904122F329007FDEAF0A3EBF090CE
:1059400008077401F09007FDE0F8A3E0C82416F5FD
:1059500082E83400F5837488F0A3742DF09007FD7D
:10596000E0F8A3E0C82414F582E83400F583741746
:10597000F090043FE06003025A0C122FC28A0C8B95
:105980000D8C0E8D0F7508A0750900750A00750B3A
:1059900000780C79081210787508FF7509FF750AF0
:1059A000FF780C79081210D99007FDE0F8A3E0F514
:1059B000838882A3A3780C1211479007FDE0F8A317
:1059C000E0C82406F582E83400F583E4F0A3F09003
:1059D000080AE0F508A3E0F509E4F50A780C79086F
:1059E0001210789007FDE0F8A3E0C8240EF582E8D5
:1059F0003400F583780C1211478E828F83A3A3A302
:105A0000A3E0F9122D6A122D70122F1A7900740575
:105A100012127E0248F8C082C083900807E0600836
:105A20007904122F44E97004790C8037900807E458
:105A3000F0122F50E9702A900445E0640170187A42
:105A4000207B0090043EE0F91235807A207B0090A4
:105A5000043EE0F91234FC7A0090043EE0F912357D
:105A600050790002623474E81212BF90043FE0647F
:105A7000086005790C025CBCEC24FAF8ED34FFF9FF
:105A8000C3E8947BE9940C4003025BCD74181212B6
:105A9000B3E0F516A3E0F517E51624FAF8E5173498
:105AA000FFF9C3E8947BE9940C4003025BCDC3E5A6
:105AB000169CE5179D5003025BCD741A1212B3E0D9
:105AC000F8A3E0F9741A1212B3E8F0A3E9F0741A1B
:105AD0001212B3C3E094F4A3E094014003025BCD3F
